:1000000090C10000BFC10000BDC10000BBC1000025
:10001000B9C10000B7C10000B5C10000B3C1000004
:10002000B1C10000AFC10000ADC10000ABC1000014
:10003000A9C10000A7C10000A5C10000A3C1000024
:10004000A1C100009FC100009DC100009BC1000034
:1000500099C1000097C1000095C1000016C40000BE
:1000600091C100000C945E0B0C94350B8BC1000009
:1000700089C1000087C1000085C1000083C1000064
:1000800081C100007FC100007DC100007BC1000074
:1000900079C1000077C1000075C1000073C1000084
:1000A00071C100006FC100006DC100006BC1000094
:1000B00069C1000067C1000065C1000063C10000A4
:1000C00061C100005FC100005DC100005BC10000B4
:1000D00059C1000057C1000055C1000053C10000C4
:1000E00051C10000B603B903A803AC03B203F00387
:1000F000BD03C103C703CB03CF03D503D903DD037E
:10010000F003E303E703EB03556E6B6E6F776E202E
:100110006572726F720041204D4946415245205030
:1001200049434320726573706F6E6465642077691C
:100130007468204E414B2E00546865204352435F43
:100140004120646F6573206E6F74206D6174636805
:100150002E00496E76616C696420617267756D6509
:100160006E742E00496E7465726E616C20657272D9
:100170006F7220696E2074686520636F64652E203D
:1001800053686F756C64206E6F7420686170706561
:100190006E2E004120627566666572206973206E5E
:1001A0006F742062696720656E6F7567682E0054F2
:1001B000696D656F757420696E20636F6D6D756E06
:1001C00069636174696F6E2E00436F6C6C69737341
:1001D000696F6E2064657465637465642E00457292
:1001E000726F7220696E20636F6D6D756E696361E9
:1001F00074696F6E2E00537563636573732E000010
:100200000020002300260029002C002F00320000CF
:1002100001000003010601090100000A0B02090C9C
:100220000D0E08070304010000000000000000009C
:1002300000000000000000000000000000000000BE
:10024000000000000012111000000000000000007B
:10025000000000000000000000000000000000009E
:10026000002200250028002B002E0031003400025F
:10027000010000050108010B0100002100240027F6
:10028000002A002D003000330001010000040107A6
:10029000010A01050505050705080808080202020C
:1002A000020A0A0808040404040101010101010111
:1002B000010303030303030303040707070C0C0CE8
:1002C0000C0C0C0C0C0202020206060606060606C0
:1002D000060B0B0B0B0B0B0B0B010210202008085D
:1002E0001020401020408002010201080402010198
:1002F0000204081020408080402010080402018081
:1003000004020180402010080402010804020101D7
:1003100002040810204080010204081020408000E0
:10032000940B11241FBECFEFD1E2DEBFCDBF00E0A2
:100330000CBF23E0ACEBB2E001C01D92A33AB207C0
:10034000E1F712E0A0E0B2E0E6E1F1E200E00BBF8D
:1003500002C007900D92AC3BB107D9F711E0C1E99B
:10036000D1E000E006C021970109802FFE010E9424
:10037000370EC039D10780E00807A9F70E94E00BCB
:100380000C9489103DCEFC01918D828D981731F02F
:10039000828DE80FF11D858D90E008958FEF9FEF1E
:1003A0000895FC01918D228D892F90E0805C9F4FF4
:1003B000821B91098F739927089580E090E0892B23
:1003C00019F06ED6811125C080E090E0892B41F0B4
:1003D00080E090E0892B21F00E94000081111CC078
:1003E00080E090E0892B41F080E090E0892B21F0C3
:1003F0000E940000811113C080E090E0892BA1F0E1
:1004000080E090E0892B81F00E94000081110AC0F9
:1004100008950E940000D8CF0E940000E1CF0E9402
:100420000000EACF0C9400000895DC01ED91FD91ED
:10043000BD010190F081E02D40E0199591E081111E
:1004400090E0892F08958430D9F050F4813091F0F4
:1004500030F1823091F08330F9F48FEA91E0089521
:100460008630A1F080F08730A1F08F3FA9F486E1BB
:1004700091E008958EED91E0089589EC91E0089562
:1004800083E991E0089584E691E0089582E591E0A2
:10049000089588E391E0089588E091E0089586EF5B
:1004A00091E0089580E292E0E9D682E292E0E6D619
:1004B00087E292E0E3C6AF92BF92CF92DF92EF92D3
:1004C000FF920F931F93CF93DF93CDB7DEB7C05248
:1004D000D2400FB6F894DEBF0FBECDBF4CE853E05C
:1004E00067E673E080E090E00E94E30D5C0180E24B
:1004F00092E0C4D689E292E0C1D687E292E0BED60D
:1005000085EC92E04EDF892BD9F38E010F5F1F4FF0
:100510007E0183EEE81A8DEFF80A2FB7F8948091E8
:10052000BD029091BE02A091BF02B091C0022FBF48
:100530008093CD029093CE02A093CF02B093D002CD
:10054000E091C502F091C6020680F781E02D85ECAE
:1005500092E0199597FD0CC0F80181938F01EE157B
:10056000FF05D9F66E01FDE0CF0ED11C03E025C0DA
:100570002FB7F8948091BD029091BE02A091BF0266
:10058000B091C0022FBF4091CD025091CE02609138
:10059000CF027091D002841B950BA60BB70B409134
:1005A000C9025091CA026091CB027091CC028417AB
:1005B0009507A607B70720F2D5CFC114D10439F0AB
:1005C000B601802FEFD7182F882379F001C016E0ED
:1005D00080E292E053D68FE292E050D6812F33DF53
:1005E000C0D787E292E04AD607C00F5F84E0C80E0A
:1005F000D11C073811F710E0C5010E94C60D019704
:1006000009F033C011113CC081E0F70180831182F1
:100610008FE082838DEB8383B70182E8C3D7182FE5
:10062000882351F080E292E029D68DE392E026D62D
:10063000812F09DF96D721C09FE0F701908380EEDC
:10064000818392838383B70182E0ACD7182F8823FC
:1006500061F080E292E012D68EE492E00FD6812F14
:10066000F2DE7FD787E292E009D6111109C080E25D
:1006700092E004D682E692E001D687E292E0FED5CF
:10068000C05EDD4F0FB6F894DEBF0FBECDBFDF9169
:10069000CF911F910F91FF90EF90DF90CF90BF907F
:1006A000AF9008950F931F93CF9380E292E0E6D529
:1006B000C0E080919003C817B8F40C2F10E00257E7
:1006C0001C4FF8018381803118F081E292E002C072
:1006D0008DE692E0D3D5F801638170E080E090E090
:1006E00040E100D7CF5FE5CF87E292E0CF911F9145
:1006F0000F91C4C5FC01848DDF01A80FB11DA35A61
:10070000BF4F2C91848D90E001968F739927848F31
:10071000A689B7892C93A089B1898C9180648C9328
:10072000938D848D981306C00288F389E02D808113
:100730008F7D8083089590E0FC013197E231F105CF
:1007400008F04EC08827EE58FF4F8F4F0C94370E9D
:10075000809180008F7703C0809180008F7D80938F
:100760008000089580918000877FF9CF84B58F77CE
:1007700002C084B58F7D84BD08958091B0008F77CD
:1007800003C08091B0008F7D8093B0000895809168
:1007900090008F7707C0809190008F7D03C080917B
:1007A0009000877F8093900008958091A0008F77BC
:1007B00007C08091A0008F7D03C08091A000877F3B
:1007C0008093A0000895809120018F7707C08091C9
:1007D00020018F7D03C080912001877F80932001BD
:1007E00008951F93CF93DF93282F30E0F901E75E40
:1007F000FD4F8491F901E752FD4FD491F901ED5677
:10080000FD4FC491CC23C1F0162F811194DFEC2F42
:10081000F0E0EE0FFF1FE15AFD4FA591B4918FB7A5
:10082000F894111105C09C91ED2FE095E92302C0C9
:10083000EC91ED2BEC938FBFDF91CF911F91089539
:100840003FB7F8948091C1029091C202A091C30277
:10085000B091C40226B5A89B05C02F3F19F00196A0
:10086000A11DB11D3FBFBA2FA92F982F8827820F36
:10087000911DA11DB11DBC01CD0142E0660F771F86
:10088000881F991F4A95D1F708951F920F920FB6AE
:100890000F9211242F933F938F939F93AF93BF9306
:1008A0008091BD029091BE02A091BF02B091C002A2
:1008B0003091BC0223E0230F2D3720F40196A11DB7
:1008C000B11D05C026E8230F0296A11DB11D20937E
:1008D000BC028093BD029093BE02A093BF02B0936E
:1008E000C0028091C1029091C202A091C302B09156
:1008F000C4020196A11DB11D8093C1029093C20252
:10090000A093C302B093C402BF91AF919F918F9106
:100910003F912F910F900FBE0F901F901895089543
:100920008EBD00000DB407FEFDCF8EB508958CBDC1
:100930009DBD08951F93CF93DF93EC01162F83E5A0
:1009400090E0F5DF60E08E854CDF812F8068E8DF86
:1009500080E0E6DF182F61E08E8543DF812FDF9195
:10096000CF911F910895EF92FF921F93CF93DF9342
:100970001F92CDB7DEB77C01162F83E590E0498347
:10098000D6DF60E0F70186852CDF812FC9DF498142
:10099000842FC6DF61E0F70186850F90DF91CF914C
:1009A0001F91FF90EF901DCFCF92DF92EF92FF92B9
:1009B0000F931F93CF93DF93EC016B01142F7901F9
:1009C00040E062E0D0DF44E06AE0CE01CCDF40E806
:1009D00064E1CE01C8DFA601612FCE0150D443E00F
:1009E00062E0CE01C0DF08E813E16AE0CE01A2DFD9
:1009F00082FF10C040E062E0CE01B5DF64E4CE01CA
:100A000099DFF701808362E4CE0194DFF7018183EF
:100A100080E004C00150110941F783E0DF91CF91DC
:100A20001F910F91FF90EF90DF90CF900895AF92BC
:100A3000CF92DF92EF92FF920F931F93CF93DF93AA
:100A4000CDB7DEB763970FB6F894DEBF0FBECDBF4C
:100A50004CE853E067E673E080E090E00E94E30D2D
:100A600022E12B8B0E94C60D90E399838A839E011D
:100A70002D5F3F4F42E0BE016F5F7F4F8EE893E0F6
:100A800093DF811114C0AA24A394C12CE12CF12C72
:100A90008E010D5E1F4F9E012F5F3F4F44E0B90155
:100AA0008EE893E022D4182F882371F001C0182F0C
:100AB00080E292E0E3D38FE292E0E0D3812FC3DCC7
:100AC00050D587E292E0DAD380E292E0D7D38E016C
:100AD0000F5F1F4F84E0F82EF00E6801F80180814F
:100AE000803118F081E292E002C08DE692E0C6D338
:100AF0000F5F1F4FF601608170E080E090E040E101
:100B0000F1D4F012EACF87E292E0B8D363960FB641
:100B1000F894DEBF0FBECDBFDF91CF911F910F9133
:100B2000FF90EF90DF90CF90AF900895EF92FF92FB
:100B30001F93CF93DF931F92CDB7DEB77C01162FA3
:100B40004983F8DE498140954823612FC7010F9002
:100B5000DF91CF911F91FF90EF9005CF8F929F92E1
:100B6000AF92CF92EF92FF920F931F93CF93DF93A9
:100B700000D01F921F92CDB7DEB74C0182E08D836B
:100B800040E064E2C401EFDE40E066E2C401EBDE77
:100B900046E268E4C401E7DE86E28C838D81823020
:100BA00008F140E86CE1C401C1DF87E08B83A12C30
:100BB000C12CCE0103967C018E010B5F1F4F9E015D
:100BC0002F5F3F4F41E0BE016C5F7F4FC4018DD36B
:100BD00081110BC08D81823039F481E09B819111AC
:100BE00004C008C084E001C081E091E0823019F0C7
:100BF00090E001C091E0892F0F900F900F900F901F
:100C00000F90DF91CF911F910F91FF90EF90CF90B8
:100C1000AF909F908F90089580E292E02FD38EE85E
:100C200093E09CDF882341F08EE893E0FEDB88238D
:100C300019F08FE692E002C083E792E01FD387E2CB
:100C400092E01CC32F923F924F925F926F927F92DD
:100C50008F929F92AF92BF92CF92DF92EF92FF92CC
:100C60000F931F93CF93DF93CDB7DEB72D970FB6BA
:100C7000F894DEBF0FBECDBF413508F006C1342E5B
:100C80003B014C0140E86CE151DFBB24B39422E00E
:100C9000B21691F033E0B316E1F041E0B412F9C0BE
:100CA00083E989833320D1F081E0F301908195308D
:100CB00008F480E0D12C17C085E98983332081F0C6
:100CC00081E0F3019081983008F480E053E0D52E64
:100CD0000AC087E9898346E0D42E04C0D12C02C023
:100CE00033E0D32E80E0532DF8EFDF9E500D11241A
:100CF00057FD50E0882321F098E89B8343E001C032
:100D000042E021E0952F977009F420E0952F95950A
:100D100095959595290F21F4882311F1585F20C0EE
:100D2000811102C094E001C093E0291708F4922FCA
:100D300020E030E06D2D70E0E42FE20FA1E0B0E0A4
:100D4000AC0FBD1FAE0FB11DF901E60FF71FE60D89
:100D5000F71DE181EC932F5F3F4F291768F3DCCF3C
:100D600023E0222E5032F4F020E72A839C818B81ED
:100D700089279D8189279E8189278F839E01285FEE
:100D80003F4F47E0BE016F5F7F4FC4015D870CDEC0
:100D90005D858111C9C01B862A86CE0107962C016C
:100DA00079E01EC0952F97709B87252F2595259557
:100DB000259582E0820F392FE0E18E9F300D1124BE
:100DC0003A8371E0911101C070E0780F442443949C
:100DD000512C4C0E5D1E480E511C87E0821B8A87E9
:100DE000CB844C2D4295407F4C0D6AE1C4015D8758
:100DF0007C87B9DDA12C9E01255F3F4F79018E01D3
:100E0000065F1F4F92017C85472FBE016F5F7F4FAA
:100E1000C4016BD25D85823091F56CE1C4018ADD3D
:100E20005D8585FD34C08F7109F480E2282F30E0A4
:100E3000452F550F550B421753075CF5582FC90125
:100E400001978770992725952595259531E0320FD3
:100E500021E0009709F420E0230FE1E0F0E0EC0F3F
:100E6000FD1FE20FF11D21E030E002C0220F331F11
:100E70008A95E2F7C9019081892B808373CF811114
:100E800053C0503244F450E26FCF86E04DC082E050
:100E90004BC085E049C08B81883809F042C033E0FF
:100EA00023E080E090E06D2D70E0FC01E60FF71F7D
:100EB000E60DF71D432F480FA1E0B0E0AC0FBD1FBA
:100EC000A40FB11D4C9141830196821770F38A855E
:100ED000833019F58B85811120C09E012D5F3F4F16
:100EE00041E0B201C40160DD81111EC09B81F201AD
:100EF0008181981314C09C818281981310C08081D5
:100F000082FF02C0B394C3CEF30183878B2D880F79
:100F1000B80EB394B08280E007C081E005C087E0DE
:100F200003C032E024E0BDCF2D960FB6F894DEBFAB
:100F30000FBECDBFDF91CF911F910F91FF90EF902A
:100F4000DF90CF90BF90AF909F908F907F906F90E9
:100F50005F904F903F902F900895AF92CF92EF9275
:100F6000FF920F931F93CF93DF9300D01F92CDB7C3
:100F7000DEB780E589831A829E012D5F3F4F42E0F4
:100F8000BE016F5F7F4F8EE893E00EDD81110FC0D1
:100F9000A12CC12CE12CF12C00E010E020E030E08D
:100FA00044E0BE016F5F7F4F8EE893E09ED148E042
:100FB00060E18EE893E0BADD80E292E05FD18BE9F8
:100FC00092E05CD187E292E059D10F900F900F90A0
:100FD0000F90DF91CF911F910F91FF90EF90CF90E5
:100FE000AF90089590E0FC01E752FD4F2491FC0181
:100FF000ED56FD4F8491882399F090E0880F991F5A
:10100000FC01E758FD4FA591B491FC01E15AFD4F59
:10101000859194918FB7F894EC91E22BEC938FBF6C
:101020000895CF92DF92EF92FF920F931F93CF9389
:10103000DF936C017A018B01C0E0D0E0CE15DF05B3
:1010400089F0D8016D918D01D601ED91FC9101904F
:10105000F081E02DC6011995892B11F47E0102C0A3
:101060002196ECCFC701DF91CF911F910F91FF9097
:10107000EF90DF90CF900895FC01918D828D9817AD
:1010800061F0828DDF01A80FB11D5D968C91928D6C
:101090009F5F9F73928F90E008958FEF9FEF089569
:1010A00085EC92E07ED921E0892B09F420E0822FA3
:1010B0000895009761F0FC0101900020E9F7319755
:1010C000AF01481B590BBC0185EC92E0AACF80E030
:1010D00090E00895BF92CF92DF92EF92FF920F932C
:1010E0001F93CF93DF936C017B01C2E6D3E02A818B
:1010F00030E02F5F3F4F8BE0829FB001839F700DE8
:10110000112488819981BBD599838883BA808C0109
:101110002BE0B29E000D111D112448E050E0B601F5
:10112000C801BBD6F801F286E186B394BA82DF919A
:10113000CF911F910F91FF90EF90DF90CF90BF90D4
:1011400008958F929F92AF92BF92CF92DF92EF92CB
:10115000FF9276DB4B015C0182E3C82ED12CE12C9F
:10116000F12C6EDBDC01CB0188199909AA09BB09B6
:10117000883E9340A105B10558F021E0C21AD1087C
:10118000E108F10888EE880E83E0981EA11CB11CCE
:10119000C114D104E104F10421F7FF90EF90DF9036
:1011A000CF90BF90AF909F908F9008954CD6EF92C4
:1011B000FF920F931F93CF93DF93EC0181E0888F11
:1011C0009B8D8C8D981305C0E889F989808185FDF8
:1011D00023C0F62E0B8D10E00F5F1F4F0F731127EA
:1011E000E02E8C8DE8120BC00FB607FCFACFE88911
:1011F000F989808185FFF5CFCE017CDAF2CF8B8D26
:10120000FE01E80FF11DE35AFF4FF0820B8FEA89D0
:10121000FB898081806207C0EE89FF896083E8894D
:10122000F98980818064808381E090E0DF91CF91B3
:101230001F910F91FF90EF900895CF93DF93EC01F2
:10124000888D8823C1F0EA89FB89808185FD05C0EE
:10125000A889B9898C9186FD0EC00FB607FCF5CF21
:10126000808185FFF2CFA889B9898C9185FFEDCF68
:10127000CE0140DAE8CFDF91CF9108951ACFCF9217
:10128000DF92EF92FF920F931F93CF93DF931F9202
:101290001F92CDB7DEB78C01F62E83E590E049832F
:1012A0005A8345DB60E0F80186859BDA82E138DB12
:1012B0004981E42EC42E5A81D52E8C2D8E198F157E
:1012C00028F4F60181916F012BDBF7CF61E0F80183
:1012D000868587DA0F900F90DF91CF911F910F9144
:1012E000FF90EF90DF90CF901ACB4F925F926F926A
:1012F0007F928F929F92AF92BF92CF92DF92EF92A6
:10130000FF920F931F93CF93DF931F921F92CDB73E
:10131000DEB74C012B01D42E3901E114F10419F090
:10132000F701408101C040E0B42EF0E1CF9EB00C47
:10133000112440E062E0C40116DB4FE768E0C4011D
:1013400012DB40E864E1C4010EDBA2016D2DC40193
:1013500096DF4B2D6AE1C40106DB4CE062E0C4017C
:1013600002DB6AE1C401E6DA482F40686AE1C401A1
:10137000FADA80ED482E87E0582E68E0C401DADA08
:10138000982F907341F480FD04C081E0481A510801
:10139000A1F783E094C06CE0C401CCDAD82E83714D
:1013A00009F08CC06114710409F44FC001151105D6
:1013B00009F44BC064E1C401BDDAB82EF8018081A4
:1013C0008B1508F475C0B082BB20A9F183E590E0CD
:1013D000AEDA60E0F401868504DA82E9A1DACC2095
:1013E00099F08FEF90E02C0101C0440CCA94EAF709
:1013F00082E996DA84214094F3019081492284297C
:101400008083CC24C39401C0C12CBA944C2C512CA1
:10141000460C571CCB1430F482E982DAF201808347
:10142000C394F4CF80E07CDAF201808361E0F401C0
:101430008685D7D974DA68E1C4017CDA8770E11453
:10144000F10421F0F701808301C080E0D3FC32C0B9
:101450006114710489F10115110571F1AA2061F17E
:10146000F8014081413019F4843019F41FC0423032
:1014700010F487E024C08111FCCF42509E012F5F01
:101480003F4FB301C40190DA811119C0F801808186
:10149000680E711CF3013297908189819813E9CF0E
:1014A000319690818A819813E4CF06C08FEF07C0F0
:1014B00084E005C082E003C080E001C081E00F90BD
:1014C0000F90DF91CF911F910F91FF90EF90DF90E0
:1014D000CF90BF90AF909F908F907F906F905F90D4
:1014E0004F9008958F929F92AF92BF920F931F9348
:1014F000CF93DF93CDB7DEB7A1970FB6F894DEBFD9
:101500000FBECDBF19A2423008F44AE08E010F5D34
:101510001F4F842E912CA12CB12CA501940185D3B1
:10152000E62FB901CA0101501109EA3014F4E05D57
:1015300001C0E95CD801EC93232B242B252B69F700
:10154000C801B7DDA1960FB6F894DEBF0FBECDBFC0
:10155000DF91CF911F910F91BF90AF909F908F908F
:1015600008950F931F93CF93DF938C01C0E0D0E0D9
:10157000F801EC0FFD1F6491662371F0E091C50244
:10158000F091C6020190F081E02D85EC92E0199572
:10159000892B11F02196ECCFCE01DF91CF911F91D5
:1015A0000F910895AF92CF92EF92FF920F931F93F6
:1015B000CF93DF93CDB7DEB76A970FB6F894DEBF4F
:1015C0000FBECDBF92EA9B8B8C8BFB0180819181FA
:1015D000A281B3818D8B9E8BAF8BB88F86E0FE018D
:1015E0007396DE01119601900D928A95E1F79E01A6
:1015F000295F3F4F46E0BE016F5F7F4F8EE893E06B
:10160000D3D9811123C082E18A8F198EA12CC12CDC
:10161000CE0149967C018E01065E1F4F9E012F5F11
:101620003F4F48E0B9018EE893E05FDE81110EC0C4
:101630008A8D813051F4898D843039F481E099812B
:101640009A3009F480E0819501C081E06A960FB676
:10165000F894DEBF0FBECDBFDF91CF911F910F91E8
:10166000FF90EF90CF90AF9008951F920F920FB61A
:101670000F9211240BB60F922F933F934F935F93CA
:101680006F937F938F939F93AF93BF93EF93FF934A
:1016900085EC92E02FD8FF91EF91BF91AF919F9190
:1016A0008F917F916F915F914F913F912F910F900B
:1016B0000BBE0F900FBE0F901F9018951F920F92A8
:1016C0000FB60F9211240BB60F922F938F939F9307
:1016D000EF93FF93E091D502F091D6028081E091E3
:1016E000DB02F091DC0282FD12C090818091DE026B
:1016F0008F5F8F732091DF02821751F0E091DE023D
:10170000F0E0EB53FD4F958F8093DE0201C08081A6
:10171000FF91EF919F918F912F910F900BBE0F90A2
:101720000FBE0F901F901895CF93DF93E5ECF2E07A
:101730001382128288EE93E0A0E0B0E08483958368
:10174000A683B7838AE092E09183808385EC90E062
:101750009587848784EC90E09787868780EC90E07B
:10176000918B808B81EC90E0938B828B82EC90E06C
:10177000958B848B86EC90E0978B868B118E128EE6
:10178000138E148EEEE8F3E08AE192E09183808379
:101790008AE0868799E09787C2E6D3E019821882AB
:1017A0001A821C821B828F831BA61AA66BE372E02F
:1017B00087E693E05DD3188619A6DF91CF9108954F
:1017C000789484B5826084BD84B5816084BD85B51C
:1017D000826085BD85B5816085BD80916E00816028
:1017E00080936E00109281008091810082608093CE
:1017F00081008091810081608093810080918000D0
:101800008160809380008091B10084608093B100FA
:101810008091B00081608093B000809191008260DF
:1018200080939100809191008160809391008091DC
:1018300090008160809390008091A10082608093ED
:10184000A1008091A10081608093A1008091A000FF
:1018500081608093A00080912101826080932101AA
:10186000809121018160809321018091200181601C
:101870008093200180917A00846080937A00809127
:101880007A00826080937A0080917A0081608093F0
:101890007A0080917A00806880937A001092C1006B
:1018A000E091D502F091D60282E08083E091D102EE
:1018B000F091D2021082E091D302F091D40280E143
:1018C00080831092DD02E091D902F091DA0286E085
:1018D0008083E091D702F091D8028081806180837B
:1018E000E091D702F091D802808188608083E091F6
:1018F000D702F091D802808180688083E091D7027E
:10190000F091D80280818F7D8083CFB7F894809149
:101910009E03811121C0E8ECF2E08491EEE0F3E057
:101920009491E82FF0E0EE0FFF1FE758FD4FA591CF
:10193000B491EC91E92321F461E085E30E94F10385
:1019400085E350DB8CB580618CBD8CB580648CBD2B
:1019500084E348DB83E346DB80919E038F5F8093C3
:101960009E03CFBF80919C033DDB61E080919C038F
:101970000E94F10380919D038F3F41F44FE062E0AC
:101980008EE893E00E94B304DCDB23C02BDB2091C4
:101990009D0330E0F901E75EFD4F8491F901E752C4
:1019A000FD4FD491F901ED56FD4FC491CC2309F4BC
:1019B000E6C081110E949B03EC2FF0E0EE0FFF1FA9
:1019C000E150FE4FA591B491EC91ED2309F4D7C0FD
:1019D000D5CF62E08EE893E00E949A0484FDF9CFAF
:1019E00040E064E28EE893E00E94B30440E066E2E7
:1019F0008EE893E00E94B30446E268E48EE893E048
:101A00000E94B30440E864E58EE893E00E94B304CA
:101A100049EA66E58EE893E00E94B30443E068E596
:101A20008EE893E00E94B30448EE6AE58EE893E006
:101A30000E94B30440E46AE28EE893E00E94B3049B
:101A40004DE362E28EE893E00E94B30440E76CE469
:101A50008EE893E00E94B30468E28EE893E00E946F
:101A60009A04982F9370933039F0482F436068E2BE
:101A70008EE893E00E94B30462E572E086E792E0AC
:101A800029DB6CE076E08CE792E024DB62E573E032
:101A900087E892E01FDB6DEA77E085E992E01ADBE8
:101AA00067E175E080EA92E015DB6BE572E08DEAB4
:101AB00092E010DB85EC92E00E94D1011816190625
:101AC0000CF05AC085EC92E0D7DAC82F80916903F8
:101AD000C81337C04CE853E067E673E08AE693E04A
:101AE00072D08C01892B41F1E0906403F12CC091FC
:101AF0006203D0916303C12CD12CCE14DF04A4F473
:101B00005E0148E050E0BE01C801B9D12B96892B97
:101B100039F4D5011996ED91FC911A9719950CC0DD
:101B2000BFEFCB1ADB0AE9CFE0916503F0916603C2
:101B3000309711F0C801199510926A0310928B0327
:101B4000B9CF8C2F0C2E000C990B83D1892B09F463
:101B5000B1CFE0918B03E03208F0ACCF91E09E0F63
:101B600090938B03F0E0EE59FC4FC087E92FF0E033
:101B7000EE59FC4F10869ECF0E94DD019BCF61E0A5
:101B800080919D030E94F103DCDA2ACFFC018827B3
:101B90009927E89421912032E9F3293010F02E3072
:101BA000C8F32B3239F02D3231F4689403C032D0AF
:101BB000820F911D219120532A30C8F31EF4909575
:101BC00081959F4F0895FA01A191B081009719F472
:101BD0001097E1F0CD01DC01CD010D90002011F452
:101BE000C00113C0FB012191222319F02015D9F760
:101BF000F3CFFB012191201519F41E92119606C016
:101C00002223C1F70D900020A1F7D001FA01A19382
:101C1000B08308957AE0979F902D879F802D910D36
:101C200011240895992788270895A1E21A2EAA1B46
:101C3000BB1BFD010DC0AA1FBB1FEE1FFF1FA2177C
:101C4000B307E407F50720F0A21BB30BE40BF50B79
:101C5000661F771F881F991F1A9469F76095709502
:101C6000809590959B01AC01BD01CF010895EE0FC9
:101C7000FF1F881F8BBF0790F691E02D19946F927C
:101C80007F928F929F92AF92BF92CF92DF92EF920C
:101C9000FF920F931F93CF93DF93EC01009781F492
:101CA000CB01DF91CF911F910F91FF90EF90DF90CB
:101CB000CF90BF90AF909F908F907F906F90FCC01F
:101CC000FC01E60FF71F9C0122503109E217F307D0
:101CD00008F4A8C0D9010D911C9111970617170798
:101CE000A8F00530110508F49BC0C80104978617B9
:101CF000970708F495C002501109061B170B0193B2
:101D000011936D937C93CF016CD18AC05B01A01AB3
:101D1000B10A4C01800E911EA091A103B091A203C3
:101D200040E050E0E12CF12C109709F44AC0A815CE
:101D3000B905D1F56D907C901197630182E0C80ED2
:101D4000D11CCA14DB0480F1A3014A195B096A01A2
:101D500082E0C80ED11C1296BC9012971396AC91DB
:101D6000B5E0CB16D10440F0B282A3835183408307
:101D7000D9016D937C930AC00E5F1F4FC301800F82
:101D8000911FF90191838083EB2DFA2FE114F10467
:101D900031F0D7011396FC93EE93129741C0F09364
:101DA000A203E093A1033CC08D919C911197481729
:101DB000590708F4AC017D0112960D90BC91A02D3D
:101DC000B3CF80919F039091A00388159905E1F40A
:101DD00046175707C8F480910002909101020097BE
:101DE00041F48DB79EB74091040250910502841BC7
:101DF000950BE817F907B0F4F093A003E0939F0365
:101E0000F901718360830CC0CB0156D07C0100972F
:101E100049F0A801BE0123D0CE01E3D0C70104C020
:101E2000CE0102C080E090E0DF91CF911F910F9131
:101E3000FF90EF90DF90CF90BF90AF909F908F90EA
:101E40007F906F90089581E090E0F89462C18032B5
:101E500009F09111E7CE80528F55E0F70895FB010C
:101E6000DC0102C001900D9241505040D8F7089516
:101E7000FB01DC0101900D920020E1F70895FB01C8
:101E8000DC014150504030F08D910190801919F4DF
:101E90000020B9F7881B990B0895FB01DC01415024
:101EA000504048F001900D920020C9F701C01D92EA
:101EB00041505040E0F70895CF93DF938230910571
:101EC00010F482E090E0E091A103F091A20320E001
:101ED00030E0C0E0D0E0309711F1408151814817E7
:101EE0005907C0F04817590761F482819381209700
:101EF00019F09B838A832BC09093A2038093A10344
:101F000026C02115310519F04217530718F49A011C
:101F1000BE01DF01EF010280F381E02DDCCF21154E
:101F2000310509F1281B390B2430310590F4129644
:101F30008D919C9113976115710521F0FB0193839D
:101F4000828304C09093A2038093A103FD01329683
:101F500044C0FD01E20FF31F819391932250310998
:101F60002D933C933AC020919F033091A003232BE3
:101F700041F420910202309103023093A003209398
:101F80009F0320910002309101022115310541F497
:101F90002DB73EB74091040250910502241B350B2A
:101FA000E0919F03F091A003E217F307A0F42E1B2A
:101FB0003F0B2817390778F0AC014E5F5F4F2417AD
:101FC000350748F04E0F5F1F5093A00340939F03C7
:101FD0008193919302C0E0E0F0E0CF01DF91CF91D7
:101FE00008950F931F93CF93DF93009709F48CC04C
:101FF000FC013297138212820091A1031091A20377
:102000000115110581F420813181820F931F2091E8
:102010009F033091A0032817390779F5F093A003A7
:10202000E0939F0371C0D80140E050E0AE17BF07B6
:1020300050F412962D913C911397AD012115310565
:1020400009F1D901F3CF9D01DA0133832283608145
:102050007181860F971F8217930769F4EC0128811D
:102060003981260F371F2E5F3F4F318320838A81AE
:102070009B8193838283452B29F4F093A203E09301
:10208000A10342C01396FC93EE931297ED01499180
:1020900059919E01240F351FE217F30771F48081D7
:1020A0009181840F951F029611969C938E93828145
:1020B000938113969C938E931297E0E0F0E0D80101
:1020C00012968D919C911397009719F0F8018C014D
:1020D000F6CF8D919C9198012E5F3F4F820F931FF9
:1020E00020919F033091A0032817390769F4309796
:1020F00029F41092A2031092A10302C0138212824B
:102100001093A00300939F03DF91CF911F910F9134
:062110000895F894FFCFD2
:102116000000A303800000000000D7081108D101C9
:102126003C08C3011D09000000002206AE05150289
:102136000200424F4D420003002F57414954002FE1
:102146004552524F5220446174613A20002F455245
:10215600524F522044796E4C6F636B3A20002F45E4
:1021660052524F52205374617469634C6F636B3AD9
:1021760020002F454E445F575249544500300059C0
:102186004553004E4F002F414D4949002F4E5441B3
:10219600475F48455245002F4745545F4E544147D7
:1021A6005F554944002F4E5441475F48414C540007
:1021B6002F524541445F414D4949424F002F5752E6
:0C21C6004954455F414D4949424F00001B
:00000001FF
