:100000000C94DE000C9406010C9406010C9406017D
:100010000C9406010C9406010C9406010C94060144
:100020000C9406010C9406010C9406010C94060134
:100030000C9406010C9406010C9406010C94060124
:100040000C944F030C9406010C94C20A0C949C0A65
:100050000C9406010C9406010C9406010C94060104
:100060000C9406010C940601556E6B6E6F776E2032
:100070006572726F720041204D49464152452050D1
:1000800049434320726573706F6E646564207769BD
:100090007468204E414B2E00546865204352435FE4
:1000A0004120646F6573206E6F74206D61746368A6
:1000B0002E00496E76616C696420617267756D65AA
:1000C0006E742E00496E7465726E616C206572727A
:1000D0006F7220696E2074686520636F64652E20DE
:1000E00053686F756C64206E6F7420686170706502
:1000F0006E2E004120627566666572206973206EFF
:100100006F742062696720656E6F7567682E005492
:10011000696D656F757420696E20636F6D6D756EA6
:1001200069636174696F6E2E00436F6C6C697373E1
:10013000696F6E2064657465637465642E00457232
:10014000726F7220696E20636F6D6D756E69636189
:1001500074696F6E2E00537563636573732E0000B0
:100160000000002300260029000000000800020112
:100170000000030407000000000000000000000071
:1001800000250028002B0000000000240027002A82
:100190000004040404040404040202020202020330
:1001A000030303030301020408102040800102043A
:1001B00008102001020408102000F40A11241FBEB8
:1001C000CFEFD8E0DEBFCDBF22E0ACEBB1E001C0A5
:1001D0001D92A33AB207E1F711E0A0E0B1E0ECED27
:1001E000FFE102C005900D92AC3BB107D9F710E0DA
:1001F000CEEDD0E004C02197FE010E94B40DCD3DAC
:10020000D107C9F70E94410B0C94EC0F0C9400002D
:10021000FC01918D828D981731F0828DE80FF11DD0
:10022000858D90E008958FEF9FEF0895FC01918DEB
:10023000228D892F90E0805C9F4F821B91098F73E4
:100240009927089580E090E0892B29F00E9490077B
:1002500081110C9400000895DC01ED91FD91BD0128
:100260000190F081E02D40E0099591E0811190E04E
:10027000892F08958430D9F050F4813091F030F115
:10028000823091F08330F9F48FE091E00895863068
:10029000A1F080F08730A1F08F3FA9F486E790E0CD
:1002A00008958EE391E0089589E291E0089583EF47
:1002B00090E0089584EC90E0089582EB90E008953A
:1002C00088E990E0089588E690E0089586E591E059
:1002D000089580E291E00E94870882E291E00E9406
:1002E000870887E291E00C948708AF92BF92CF9283
:1002F000DF92EF92FF920F931F93CF93DF93CDB7CF
:10030000DEB7C052D2400FB6F894DEBF0FBECDBFED
:100310004CE852E067E672E080E090E00E94290D30
:100320005C0180E291E00E94870889E291E00E94EE
:10033000870887E291E00E94870885EC91E00E949F
:100340001601892BD1F38E010F5F1F4F7E0183EEC3
:10035000E81A8DEFF80A2FB7F8948091BD019091BB
:10036000BE01A091BF01B091C0012FBF8093CD010C
:100370009093CE01A093CF01B093D001E091C5013D
:10038000F091C6010680F781E02D85EC91E009959A
:1003900097FD0CC0F80181938F01EE15FF05D9F68A
:1003A0006E01FDE0CF0ED11C03E025C02FB7F894FD
:1003B0008091BD019091BE01A091BF01B091C0019B
:1003C0002FBF4091CD015091CE016091CF0170912E
:1003D000D001841B950BA60BB70B4091C90150911E
:1003E000CA016091CB017091CC0184179507A607D3
:1003F000B70720F2D5CFC114D10441F0B601802F48
:100400000E94370A182F8823A1F001C016E080E26D
:1004100091E00E9487088FE291E00E948708812F77
:100420000E943A010E94160A87E291E00E94870822
:1004300007C00F5F84E0C80ED11C0738E1F610E05A
:10044000C5010E940B0D019709F03EC011114AC071
:1004500081E0F701808311828FE082838DEB8383BB
:10046000B70182E80E94370A182F882371F080E2D2
:1004700091E00E9487088DE391E00E948708812F18
:100480000E943A010E94160A29C09FE0F70190835A
:1004900080EE818392838383B70182E00E94370AD2
:1004A000182F882389F080E291E00E9487088EE46B
:1004B00091E00E948708812F0E943A010E94160A4B
:1004C00087E291E00E94870811110CC080E291E060
:1004D0000E94870882E691E00E94870887E291E007
:1004E0000E948708C05EDD4F0FB6F894DEBF0FBED6
:1004F000CDBFDF91CF911F910F91FF90EF90DF90D3
:10050000CF90BF90AF9008950F931F93CF9380E249
:1005100091E00E948708C0E080919002C817C8F45B
:100520000C2F10E002571D4FF8018381803118F025
:1005300081E291E002C08DE691E00E948708F80117
:10054000638170E080E090E040E10E94D509CF5FD8
:10055000E3CF87E291E0CF911F910F910C94870830
:10056000FC01848DDF01A80FB11DA35ABF4F2C9150
:10057000848D90E001968F739927848FA689B7891F
:100580002C93A089B1898C9180648C93938D848DF8
:10059000981306C00288F389E02D80818F7D8083C7
:1005A0000895833081F028F4813099F08230A1F0F1
:1005B00008958730A9F08830B9F08430D1F4809163
:1005C00080008F7D03C0809180008F7780938000B2
:1005D000089584B58F7702C084B58F7D84BD08955A
:1005E0008091B0008F7703C08091B0008F7D8093A1
:1005F000B00008951F93CF93DF93282F30E0F901C7
:10060000E759FE4F8491F901EB55FE4FD491F90162
:10061000EF56FE4FC491CC23C9F0162F81110E94D2
:10062000D102EC2FF0E0EE0FFF1FE358FE4FA59133
:10063000B4918FB7F894111105C09C91ED2FE095FE
:10064000E92302C0EC91ED2BEC938FBFDF91CF91AA
:100650001F9108953FB7F8948091C1019091C20114
:10066000A091C301B091C40126B5A89B05C02F3F3E
:1006700019F00196A11DB11D3FBFBA2FA92F982FC8
:100680008827820F911DA11DB11DBC01CD0142E043
:10069000660F771F881F991F4A95D1F708951F92FB
:1006A0000F920FB60F9211242F933F938F939F9326
:1006B000AF93BF938091BD019091BE01A091BF0106
:1006C000B091C0013091BC0123E0230F2D3720F4FD
:1006D0000196A11DB11D05C026E8230F0296A11D9C
:1006E000B11D2093BC018093BD019093BE01A093E6
:1006F000BF01B093C0018091C1019091C201A0914E
:10070000C301B091C4010196A11DB11D8093C10127
:100710009093C201A093C301B093C401BF91AF9164
:100720009F918F913F912F910F900FBE0F901F902F
:10073000189508958EBD00000DB407FEFDCF8EB54F
:1007400008958CBD9DBD08951F93CF93DF93EC0159
:10075000162F83E590E00E94A10360E08E850E9441
:10076000FA02812F80680E949A0380E00E949A0317
:10077000182F61E08E850E94FA02812FDF91CF91C0
:100780001F910895EF92FF921F93CF93DF931F92D3
:10079000CDB7DEB77C01162F83E590E049830E9438
:1007A000A10360E0F70186850E94FA02812F0E9472
:1007B0009A034981842F0E949A0361E0F70186859C
:1007C0000F90DF91CF911F91FF90EF900C94FA0260
:1007D000CF92DF92EF92FF920F931F93CF93DF930D
:1007E000EC016B01142F790140E062E00E94C2032A
:1007F00044E06AE0CE010E94C20340E864E1CE0119
:100800000E94C203A601612FCE010E94890843E025
:1008100062E0CE010E94C20308E813E16AE0CE0163
:100820000E94A40382FF13C040E062E0CE010E9458
:10083000C20364E4CE010E94A403F701808362E452
:10084000CE010E94A403F701818380E004C001501F
:10085000110921F783E0DF91CF911F910F91FF9054
:10086000EF90DF90CF900895AF92CF92DF92EF920A
:10087000FF920F931F93CF93DF93CDB7DEB76397AC
:100880000FB6F894DEBF0FBECDBF4CE852E067E66E
:1008900072E080E090E00E94290D22E12B8B0E9403
:1008A0000B0D90E399838A839E012D5F3F4F42E0B9
:1008B000BE016F5F7F4F8EE892E00E94E8038111D6
:1008C00015C0AA24A394C12CE12CF12C8E010D5E3D
:1008D0001F4F9E012F5F3F4F44E0B9018EE892E029
:1008E0000E94C408182F882399F001C0182F80E2B5
:1008F00091E00E9487088FE291E00E948708812F93
:100900000E943A010E94160A87E291E00E9487083D
:1009100080E291E00E9487088E010F5F1F4F84E004
:10092000F82EF00E6801F8018081803118F081E224
:1009300091E002C08DE691E00E9487080F5F1F4F93
:10094000F601608170E080E090E040E10E94D5090E
:10095000F012E8CF87E291E00E94870863960FB615
:10096000F894DEBF0FBECDBFDF91CF911F910F91E5
:10097000FF90EF90DF90CF90AF900895EF92FF92AD
:100980001F93CF93DF931F92CDB7DEB77C01162F55
:1009900049830E94A403498140954823612FC701E0
:1009A0000F90DF91CF911F91FF90EF900C94C203B5
:1009B0008F929F92AF92CF92EF92FF920F931F93DD
:1009C000CF93DF9300D000D01F92CDB7DEB74C019C
:1009D00082E08D8340E064E2C4010E94C20340E0F3
:1009E00066E2C4010E94C20346E268E4C4010E94B8
:1009F000C20386E28C838D81823018F140E86CE17D
:100A0000C4010E94BE0487E08B83A12CC12CCE01BF
:100A100003967C018E010B5F1F4F9E012F5F3F4F9E
:100A200041E0BE016C5F7F4FC4010E94C408811188
:100A30000BC08D81823039F481E09B81911104C01B
:100A400008C084E001C081E091E0823019F090E0BC
:100A500001C091E0892F0F900F900F900F900F9091
:100A6000DF91CF911F910F91FF90EF90CF90AF90BA
:100A70009F908F90089580E291E00E9487088EE811
:100A800092E00E94D804882349F08EE892E00E9408
:100A90002C01882319F08FE691E002C083E791E0F2
:100AA0000E94870887E291E00C9487082F923F927A
:100AB0004F925F926F927F928F929F92AF92BF926E
:100AC000CF92DF92EF92FF920F931F93CF93DF931A
:100AD000CDB7DEB72D970FB6F894DEBF0FBECDBFF2
:100AE000413508F00BC1342E3B014C0140E86CE16C
:100AF0000E94BE04BB24B39422E0B21691F033E00E
:100B0000B316E1F041E0B412FDC083E989833320DC
:100B1000D1F081E0F3019081953008F480E0D12C90
:100B200017C085E98983332081F081E0F30190814A
:100B3000983008F480E053E0D52E0AC087E9898315
:100B400046E0D42E04C0D12C02C033E0D32E80E086
:100B5000532DF8EFDF9E500D112457FD50E08823F0
:100B600021F098E89B8343E001C042E021E0952F0B
:100B7000977009F420E0952F959595959595290FF7
:100B800021F4882311F1585F20C0811102C094E044
:100B900001C093E0291708F4922F20E030E06D2D7A
:100BA00070E0E42FE20FA1E0B0E0AC0FBD1FAE0F8C
:100BB000B11DF901E60FF71FE60DF71DE181EC937A
:100BC0002F5F3F4F291768F3DCCF23E0222E5032EE
:100BD000FCF020E72A839C818B8189279D818927CE
:100BE0009E8189278F839E01285F3F4F47E0BE018A
:100BF0006F5F7F4FC4015D870E94E8035D858111AF
:100C0000CDC01B862A86CE0107962C0179E01EC036
:100C1000952F97709B87252F25952595259582E003
:100C2000820F392FE0E18E9F300D11243A8371E05D
:100C3000911101C070E0780F44244394512C4C0E64
:100C40005D1E480E511C87E0821B8A87CB844C2D89
:100C50004295407F4C0D6AE1C4015D877C870E940C
:100C6000C203A12C9E01255F3F4F79018E01065FD3
:100C70001F4F92017C85472FBE016F5F7F4FC401DC
:100C80000E94C4085D85823099F56CE1C4010E9420
:100C9000A4035D8585FD34C08F7109F480E2282F9F
:100CA00030E0452F550F550B421753075CF5582F71
:100CB000C90101978770992725952595259531E0DC
:100CC000320F21E0009709F420E0230FE1E0F0E08B
:100CD000EC0FFD1FE20FF11D21E030E002C0220FFA
:100CE000331F8A95E2F7C9019081892B80836FCFEA
:100CF000811154C0503244F450E26BCF86E04EC0B4
:100D000082E04CC085E04AC08B81883809F043C03E
:100D100033E023E080E090E06D2D70E0FC01E60F11
:100D2000F71FE60DF71D432F480FA1E0B0E0AC0F11
:100D3000BD1FA40FB11D4C9141830196821770F322
:100D40008A85833021F58B85811121C09E012D5F1D
:100D50003F4F41E0B201C4010E94E80381111EC06F
:100D60009B81F2018181981314C09C818281981328
:100D700010C0808182FF02C0B394BECEF30183878E
:100D80008B2D880FB80EB394B08280E007C081E04D
:100D900005C087E003C032E024E0BCCF2D960FB63B
:100DA000F894DEBF0FBECDBFDF91CF911F910F91A1
:100DB000FF90EF90DF90CF90BF90AF909F908F907B
:100DC0007F906F905F904F903F902F900895AF92DB
:100DD000CF92EF92FF920F931F93CF93DF9300D0A8
:100DE00000D0CDB7DEB780E589831A829E012D5FE2
:100DF0003F4F42E0BE016F5F7F4F8EE892E00E945E
:100E0000E803811110C0A12CC12CE12CF12C00E0D1
:100E100010E020E030E044E0BE016F5F7F4F8EE8DD
:100E200092E00E94C40848E060E18EE892E00E94EF
:100E3000BE0480E291E00E9487088BE991E00E9465
:100E4000870887E291E00E9487080F900F900F902B
:100E50000F90DF91CF911F910F91FF90EF90CF9066
:100E6000AF90089590E0FC01EB55FE4F2491FC01FA
:100E7000EF56FE4F8491882399F090E0880F991FD8
:100E8000FC01E957FE4FA591B491FC01E358FE4FD8
:100E9000859194918FB7F894EC91E22BEC938FBFEE
:100EA0000895CF92DF92EF92FF920F931F93CF930B
:100EB000DF936C017A018B01C0E0D0E0CE15DF0535
:100EC00089F0D8016D918D01D601ED91FC910190D1
:100ED000F081E02DC6010995892B11F47E0102C035
:100EE0002196ECCFC701DF91CF911F910F91FF9019
:100EF000EF90DF90CF900895FC01918D828D98172F
:100F000061F0828DDF01A80FB11D5D968C91928DED
:100F10009F5F9F73928F90E008958FEF9FEF0895EA
:100F200085EC91E00E94160121E0892B09F420E074
:100F3000822F0895009769F0FC0101900020E9F7E5
:100F40003197AF01481B590BBC0185EC91E00C9423
:100F5000510780E090E00895BF92CF92DF92EF9228
:100F6000FF920F931F93CF93DF936C017B01C2E637
:100F7000D2E02A8130E02F5F3F4F8BE0829FB001AB
:100F8000839F700D1124888199810E94BA0D9983E5
:100F90008883BA808C012BE0B29E000D111D1124B4
:100FA00048E050E0B601C8010E94B00EF801F28698
:100FB000E186B394BA82DF91CF911F910F91FF9098
:100FC000EF90DF90CF90BF9008958F929F92AF9255
:100FD000BF92CF92DF92EF92FF920E942A034B01C1
:100FE0005C0182E3C82ED12CE12CF12C0E942A0353
:100FF000DC01CB0188199909AA09BB09883E9340F5
:10100000A105B10558F021E0C21AD108E108F108A4
:1010100088EE880E83E0981EA11CB11CC114D10477
:10102000E104F10419F7FF90EF90DF90CF90BF90AB
:10103000AF909F908F9008950E94840EEF92FF9240
:101040000F931F93CF93DF93EC0181E0888F9B8DEB
:101050008C8D981305C0E889F989808185FD24C0AD
:10106000F62E0B8D10E00F5F1F4F0F731127E02E30
:101070008C8DE8120CC00FB607FCFACFE889F9890D
:10108000808185FFF5CFCE010E94B002F1CF8B8D1C
:10109000FE01E80FF11DE35AFF4FF0820B8FEA8942
:1010A000FB898081806207C0EE89FF896083E889BF
:1010B000F98980818064808381E090E0DF91CF9125
:1010C0001F910F91FF90EF900895CF93DF93EC0164
:1010D000888D8823C9F0EA89FB89808185FD05C058
:1010E000A889B9898C9186FD0FC00FB607FCF5CF92
:1010F000808185FFF2CFA889B9898C9185FFEDCFDA
:10110000CE010E94B002E7CFDF91CF9108950C94F9
:101110009A07CF92DF92EF92FF920F931F93CF9394
:10112000DF9300D0CDB7DEB78C01F62E83E590E0DB
:1011300049835A830E94A10360E0F80186850E94DA
:10114000FA0282E10E949A034981E42EC42E5A8158
:10115000D52E8C2D8E198F1530F4F60181916F01EB
:101160000E949A03F6CF61E0F80186850E94FA0298
:101170000F900F90DF91CF911F910F91FF90EF9003
:10118000DF90CF900C9499034F925F926F927F9271
:101190008F929F92AF92BF92CF92DF92EF92FF9287
:1011A0000F931F93CF93DF9300D0CDB7DEB74C01E1
:1011B0002B01D42E3901E114F10419F0F70140811B
:1011C00001C040E0B42EF0E1CF9EB00C112440E00D
:1011D00062E0C4010E94C2034FE768E0C4010E94BC
:1011E000C20340E864E1C4010E94C203A2016D2D64
:1011F000C4010E9489084B2D6AE1C4010E94C20308
:101200004CE062E0C4010E94C2036AE1C4010E9492
:10121000A403482F40686AE1C4010E94C20380ED24
:10122000482E87E0582E68E0C4010E94A403982F3E
:10123000907341F480FD04C081E0481A510899F789
:1012400083E0A0C06CE0C4010E94A403D82E837187
:1012500009F097C06114710409F459C00115110512
:1012600009F455C064E1C4010E94A403B82EF8013A
:1012700080818B1508F47FC0B082BB20E9F183E543
:1012800090E00E94A10360E0F40186850E94FA02CA
:1012900082E90E949A03CC20A1F08FEF90E02C010C
:1012A00001C0440CCA94EAF782E90E949A0384219F
:1012B0004094F3019081492284298083CC24C394F3
:1012C00001C0C12CBA944C2C512C460C571CCB1489
:1012D00038F482E90E949A03F2018083C394F3CF29
:1012E00080E00E949A03F201808361E0F401868528
:1012F0000E94FA020E94990368E1C4010E94A403BB
:101300008770E114F10421F0F701808301C080E0CF
:10131000D3FC33C06114710491F10115110579F109
:10132000AA2069F1F8014081413019F4843019F4A0
:1013300020C0423010F487E025C08111FCCF42501C
:101340009E012F5F3F4FB301C4010E94E80381114A
:1013500019C0F8018081680E711CF30132979081E9
:1013600089819813E8CF319690818A819813E3CFD1
:1013700006C08FEF07C084E005C082E003C080E0B4
:1013800001C081E00F900F90DF91CF911F910F91DD
:10139000FF90EF90DF90CF90BF90AF909F908F9095
:1013A0007F906F905F904F9008958F929F92AF9231
:1013B000BF920F931F93CF93DF93CDB7DEB7A19763
:1013C0000FB6F894DEBF0FBECDBF19A2423008F4AD
:1013D0004AE08E010F5D1F4F842E912CA12CB12C61
:1013E000A50194010E94920DE62FB901CA01015096
:1013F0001109EA3014F4E05D01C0E95CD801EC9316
:10140000232B242B252B61F7C8010E949A07A19654
:101410000FB6F894DEBF0FBECDBFDF91CF911F9105
:101420000F91BF90AF909F908F9008950F931F934F
:10143000CF93DF938C01C0E0D0E0F801EC0FFD1FEB
:101440006491662371F0E091C501F091C6010190AD
:10145000F081E02D85EC91E00995892B11F0219622
:10146000ECCFCE01DF91CF911F910F910895AF92F4
:10147000CF92EF92FF920F931F93CF93DF93CDB74D
:10148000DEB76A970FB6F894DEBF0FBECDBF92EA03
:101490009B8B8C8BFB0180819181A281B3818D8B91
:1014A0009E8BAF8BB88F86E0FE017396DE0111969E
:1014B00001900D928A95E1F79E01295F3F4F46E02A
:1014C000BE016F5F7F4F8EE892E00E94E8038111BA
:1014D00024C082E18A8F198EA12CC12CCE0149969D
:1014E0007C018E01065E1F4F9E012F5F3F4F48E03B
:1014F000B9018EE892E00E94C40881110EC08A8D65
:10150000813051F4898D843039F481E099819A30A9
:1015100009F480E0819501C081E06A960FB6F894E5
:10152000DEBF0FBECDBFDF91CF911F910F91FF9016
:10153000EF90CF90AF9008951F920F920FB60F9239
:1015400011242F933F934F935F936F937F938F93C8
:101550009F93AF93BF93EF93FF9385EC91E00E942D
:10156000B002FF91EF91BF91AF919F918F917F91C9
:101570006F915F914F913F912F910F900FBE0F9000
:101580001F9018951F920F920FB60F9211242F9350
:101590008F939F93EF93FF93E091D501F091D60144
:1015A0008081E091DB01F091DC0182FD12C090812D
:1015B0008091DE018F5F8F732091DF01821751F0E0
:1015C000E091DE01F0E0EB53FE4F958F8093DE015A
:1015D00001C08081FF91EF919F918F912F910F908A
:1015E0000FBE0F901F901895CF93DF93E5ECF1E0BD
:1015F0001382128288EE93E0A0E0B0E084839583AA
:10160000A683B7838AE091E09183808385EC90E0A4
:101610009587848784EC90E09787868780EC90E0BC
:10162000918B808B81EC90E0938B828B82EC90E0AD
:10163000958B848B86EC90E0978B868B118E128E27
:10164000138E148EEEE8F2E08AE191E091838083BC
:101650008AE0868799E09787C2E6D2E019821882ED
:101660001A821C821B828F831BA61AA66BE371E071
:1016700087E692E00E949B0E188619A6DF91CF9113
:101680000895789484B5826084BD84B5816084BDFA
:1016900085B5826085BD85B5816085BD80916E0010
:1016A000816080936E001092810080918100826041
:1016B000809381008091810081608093810080917E
:1016C00080008160809380008091B100846080936D
:1016D000B1008091B00081608093B00080917A0069
:1016E000846080937A0080917A00826080937A008F
:1016F00080917A00816080937A0080917A0080687E
:1017000080937A001092C100E091D501F091D6014A
:1017100082E08083E091D101F091D2011082E091CA
:10172000D301F091D40180E180831092DD01E0913A
:10173000D901F091DA0186E08083E091D701F09140
:10174000D801808180618083E091D701F091D80138
:10175000808188608083E091D701F091D8018081F9
:1017600080688083E091D701F091D80180818F7DDE
:101770008083CFB7F89480919E02811124C0EBE959
:10178000F1E08491EFEAF1E09491E82FF0E0EE0FC0
:10179000FF1FE957FE4FA591B491EC91E92321F485
:1017A00061E08AE00E94FA028AE00E9432078CB56A
:1017B00080618CBD8CB580648CBD8DE00E94320749
:1017C0008BE00E94320780919E028F5F80939E0281
:1017D000CFBF80919C020E94320761E080919C0201
:1017E0000E94FA0280919D028F3F49F44FE062E02F
:1017F0008EE892E00E94C2030E94E50724C00E9486
:10180000320720919D0230E0F901E759FE4F8491A3
:10181000F901EB55FE4FD491F901EF56FE4FC491FB
:10182000CC2309F4F0C081110E94D102EC2FF0E02A
:10183000EE0FFF1FE15AFE4FA591B491EC91ED23FD
:1018400009F4E1C0D3CF62E08EE892E00E94A403E5
:1018500084FDF9CF40E064E28EE892E00E94C2038A
:1018600040E066E28EE892E00E94C20346E268E44D
:101870008EE892E00E94C20340E864E58EE892E0C0
:101880000E94C20349EA66E58EE892E00E94C20324
:1018900043E068E58EE892E00E94C20348EE6AE504
:1018A0008EE892E00E94C20340E46AE28EE892E091
:1018B0000E94C2034DE362E28EE892E00E94C203FE
:1018C00040E76CE48EE892E00E94C20368E28EE892
:1018D00092E00E94A403982F9370933039F0482F20
:1018E000436068E28EE892E00E94C20369E671E01C
:1018F00086E791E00E94AC076BE375E08CE791E02E
:101900000E94AC0764E872E087E891E00E94AC07AF
:1019100067EE76E085E991E00E94AC0764E374E04D
:1019200080EA91E00E94AC0765E771E08DEA91E002
:101930000E94AC0785EC91E00E941601181619066A
:101940000CF05EC085EC91E00E947C07C82F80916E
:101950006902C81339C04CE852E067E672E08AE6D3
:1019600092E00E94290D8C01892B49F1E0906402DC
:10197000F12CC0916202D0916302C12CD12CCE1403
:10198000DF04ACF45E0148E050E0BE01C8010E94F3
:10199000A20E2B96892B39F4D5011996ED91FC9165
:1019A0001A9709950CC0BFEFCB1ADB0AE8CFE0917C
:1019B0006502F0916602309711F0C8010995109206
:1019C0006A0210928B02B6CF8C2F0C2E000C990B52
:1019D0000E948B0E892B09F4ADCFE0918B02E0328F
:1019E00008F0A8CF91E09E0F90938B02F0E0EE59A3
:1019F000FD4FC087E92FF0E0EE59FD4F10869ACFDA
:101A00000E94220197CF61E080919D020E94FA021C
:101A10000E94E5071FCFFC0188279927E8942191B0
:101A20002032E9F3293010F02E30C8F32B3241F088
:101A30002D3239F4689404C00E94500D820F911D1C
:101A4000219120532A30C0F31EF4909581959F4F29
:101A50000895FA01A191B081009719F41097E1F06F
:101A6000CD01DC01CD010D90002011F4C00113C0A7
:101A7000FB012191222319F02015D9F7F3CFFB01A7
:101A80002191201519F41E92119606C02223C1F748
:101A90000D900020A1F7D001FA01A193B083089521
:101AA0007AE0979F902D879F802D910D11240895A6
:101AB0009927882708952F923F924F925F926F92B5
:101AC0007F928F929F92AF92BF92CF92DF92EF92CE
:101AD000FF920F931F93CF93DF93CDB7DEB7CA1B4F
:101AE000DB0B0FB6F894DEBF0FBECDBF09942A887A
:101AF000398848885F846E847D848C849B84AA8422
:101B0000B984C884DF80EE80FD800C811B81AA81AE
:101B1000B981CE0FD11D0FB6F894DEBF0FBECDBF79
:101B2000ED010895A1E21A2EAA1BBB1BFD010DC0F9
:101B3000AA1FBB1FEE1FFF1FA217B307E407F5077D
:101B400020F0A21BB30BE40BF50B661F771F881F59
:101B5000991F1A9469F760957095809590959B01EF
:101B6000AC01BD01CF010895EE0FFF1F0590F49168
:101B7000E02D0994A0E0B0E0E0ECFDE00C945F0DF6
:101B8000EC01009721F4CB010E94BF0EB8C0FC010C
:101B9000E60FF71F9C0122503109E217F30708F402
:101BA000ACC0D9010D911C91119706171707B0F021
:101BB0000530110508F49FC0C801049786179707E0
:101BC00008F499C002501109061B170B01931193D9
:101BD0006D937C93CF010E94540F8DC05B01A01ABE
:101BE000B10A4C01800E911EA091A102B091A202F7
:101BF00040E050E0E12CF12C109709F44AC0A81500
:101C0000B905D1F56D907C901197630182E0C80E03
:101C1000D11CCA14DB0480F1A3014A195B096A01D3
:101C200082E0C80ED11C1296BC9012971396AC910C
:101C3000B5E0CB16D10440F0B282A3835183408338
:101C4000D9016D937C930AC00E5F1F4FC301800FB3
:101C5000911FF90191838083EB2DFA2FE114F10498
:101C600031F0D7011396FC93EE93129744C0F09392
:101C7000A202E093A1023FC08D919C911197481759
:101C8000590708F4AC017D0112960D90BC91A02D6E
:101C9000B3CF80919F029091A00288159905E1F43D
:101CA00046175707C8F480910001909101010097F1
:101CB00041F48DB79EB74091040150910501841BFA
:101CC000950BE817F907C8F4F093A002E0939F0280
:101CD000F901718360830FC0CB010E94BF0E7C01AC
:101CE000009759F0A801BE010E94920ECE010E94F9
:101CF000540FC70104C0CE0102C080E090E0CDB710
:101D0000DEB7EEE00C947B0D81E090E0F8940C944B
:101D1000EC0F803209F091110C94580D80528F55C0
:101D2000D8F70895FB01DC0102C001900D924150EB
:101D30005040D8F70895FB01DC0101900D9200207E
:101D4000E1F70895FB01DC014150504030F08D91E6
:101D50000190801919F40020B9F7881B990B089598
:101D6000FB01DC014150504048F001900D920020F1
:101D7000C9F701C01D9241505040E0F70895CF933C
:101D8000DF938230910510F482E090E0E091A102AF
:101D9000F091A20220E030E0C0E0D0E0309711F1F5
:101DA0004081518148175907C0F04817590761F41D
:101DB00082819381209719F09B838A832BC0909313
:101DC000A2028093A10226C02115310519F0421705
:101DD000530718F49A01BE01DF01EF010280F3817D
:101DE000E02DDCCF2115310509F1281B390B2430FA
:101DF000310590F412968D919C91139761157105A0
:101E000021F0FB019383828304C09093A20280930C
:101E1000A102FD01329644C0FD01E20FF31F819340
:101E20009193225031092D933C933AC020919F0207
:101E30003091A002232B41F4209102013091030143
:101E40003093A00220939F02209100013091010164
:101E50002115310541F42DB73EB740910401509151
:101E60000501241B350BE0919F02F091A002E217BF
:101E7000F307A0F42E1B3F0B2817390778F0AC01AD
:101E80004E5F5F4F2417350748F04E0F5F1F50938A
:101E9000A00240939F028193919302C0E0E0F0E0A2
:101EA000CF01DF91CF9108950F931F93CF93DF93CD
:101EB000009709F48CC0FC013297138212820091C2
:101EC000A1021091A2020115110581F42081318136
:101ED000820F931F20919F023091A002281739078B
:101EE00079F5F093A002E0939F0271C0D80140E021
:101EF00050E0AE17BF0750F412962D913C91139706
:101F0000AD012115310509F1D901F3CF9D01DA01A8
:101F10003383228360817181860F971F8217930715
:101F200069F4EC0128813981260F371F2E5F3F4F5E
:101F3000318320838A819B8193838283452B29F47B
:101F4000F093A202E093A10242C01396FC93EE9399
:101F50001297ED01499159919E01240F351FE21707
:101F6000F30771F480819181840F951F0296119679
:101F70009C938E938281938113969C938E93129758
:101F8000E0E0F0E0D80112968D919C9113970097B4
:101F900019F0F8018C01F6CF8D919C9198012E5F7C
:101FA0003F4F820F931F20919F023091A00228176C
:101FB000390769F4309729F41092A2021092A10215
:101FC00002C0138212821093A00200939F02DF913D
:0C1FD000CF911F910F910895F894FFCF5E
:101FDC000000A3028000000000001E08510716013B
:101FEC007C0708016508000000005605D8042C0188
:101FFC000200424F4D420003002F57414954002F1D
:10200C004552524F5220446174613A20002F455280
:10201C00524F522044796E4C6F636B3A20002F451F
:10202C0052524F52205374617469634C6F636B3A14
:10203C0020002F454E445F575249544500300059FB
:10204C004553004E4F002F414D4949002F4E5441EE
:10205C00475F48455245002F4745545F4E54414712
:10206C005F554944002F4E5441475F48414C540042
:10207C002F524541445F414D4949424F002F575221
:0C208C004954455F414D4949424F000056
:00000001FF
