:100000000C945E010C9486010C9486010C9486017C
:100010000C9486010C9486010C9486010C94860144
:100020000C9486010C9486010C9490090C94020A9D
:100030000C9486010C9486010C9486010C94860124
:100040000C9486010C9486010C9486010C94860114
:100050000C9486010C9486010C9486010C94160471
:100060000C9486010C9486010C9486010C948601F4
:100070000C9486010C9486010C9486010C948601E4
:100080000C9486010C9486010C9486010C948601D4
:100090000C9486010C9486010C9486010C948601C4
:1000A0000C9486010C9486010C94860187038A03C4
:1000B00079037D038303AB03AB03AB038E0392038E
:1000C00096039C03A003AB03A603556E6B6E6F777C
:1000D0006E206572726F720041204D494641524553
:1000E000205049434320726573706F6E64656420CD
:1000F00077697468204E414B2E0054686520435246
:10010000435F4120646F6573206E6F74206D61746E
:1001100063682E00496E76616C6964206172677550
:100120006D656E742E00496E7465726E616C20652B
:1001300072726F7220696E2074686520636F6465E7
:100140002E2053686F756C64206E6F742068617028
:1001500070656E2E00412062756666657220697357
:10016000206E6F742062696720656E6F7567682EF8
:100170000054696D656F757420696E20636F6D6DD5
:10018000756E69636174696F6E2E00436F6C6C6984
:100190007373696F6E2064657465637465642E00A3
:1001A0004572726F7220696E20636F6D6D756E6936
:1001B000636174696F6E2E00537563636573732E8C
:1001C00000080B0002020201000904000001020203
:1001D0000000052400100105240101010424020689
:1001E00005240600010705810310004009040100F1
:1001F000020A000000070502024000000705830212
:100200004000000403090412010002EF0201404112
:1002100023378000010102030141726475696E6F2A
:10022000204C4C430041726475696E6F204D6963C8
:10023000726F00000000002300260029002C002F10
:10024000000000000200090F0000030401000C0080
:10025000000000000000000000000000000000009E
:1002600000000000250028002B002E0031000000B7
:100270000000240027002A002D003000040404049C
:10028000040304050202020204030202020206063B
:100290000606060604040202020404040802011011
:1002A00040804010204080408008020401804020AF
:1002B000100201108010204040203A1111241FBE6E
:1002C000CFEFDAE0DEBFCDBF22E0AEECB1E001C09F
:1002D0001D92AE37B207E1F711E0A0E0B1E0E4EA29
:1002E000F8E202C005900D92AE3CB107D9F711E0DB
:1002F000CEE5D1E004C02197FE010E941812CD3551
:10030000D107C9F70E94320F0C9450140C940000CE
:10031000FC018485958597FD0BC09FB7F89482E01A
:100320008093E9008091F2009FBF90E001960895CC
:100330009FB7F89482E08093E9008091F2009FBF1C
:1003400090E008953FB7F8948091D3019091D40143
:10035000A091D501B091D60126B5A89B05C02F3F2D
:1003600019F00196A11DB11D3FBFBA2FA92F982FDB
:100370008827820F911DA11DB11DBC01CD0142E056
:10038000660F771F881F991F4A95D1F70895DC01E2
:10039000ED91FD91BD010190F081E02D40E00995C6
:1003A00091E0811190E0892F08958430D9F050F4C4
:1003B000813091F030F1823091F08330F9F481E7AF
:1003C00091E008958630A1F080F08730A1F08F3F52
:1003D000A9F488ED90E0089580EA91E008958BE813
:1003E00091E0089585E591E0089586E291E0089511
:1003F00084E191E008958AEF90E008958AEC90E01E
:10040000089588EB91E008950F931F93CF93DF93A6
:100410001F92CDB7DEB78C01FC018485958597FFCF
:100420000EC0CE0101960E94B70E019719F42981E2
:1004300030E002C02FEF3FEFF80135872487F80145
:10044000848595850F90DF91CF911F910F9108952D
:1004500083E391E00E944A0C85E391E00E944A0CFC
:100460008AE391E00C944A0CAF92BF92CF92DF9254
:10047000EF92FF920F931F93CF93DF93CDB7DEB729
:10048000C052D2400FB6F894DEBF0FBECDBF4CE5D0
:1004900052E067E372E080E090E00E948D115C0121
:1004A00083E391E00E944A0C8CE391E00E944A0CA5
:1004B0008AE391E00E944A0C82EE91E00E9488015A
:1004C000892BD1F38E010F5F1F4F7E0183EEE81A57
:1004D0008DEFF80A2FB7F8948091CF019091D00159
:1004E000A091D101B091D2012FBF8093EA019093E6
:1004F000EB01A093EC01B093ED01E091E201F091EA
:10050000E3010680F781E02D82EE91E0099597FDE9
:100510000CC0F80181938F01EE15FF05D9F66E012D
:10052000FDE0CF0ED11C03E025C02FB7F8948091D9
:10053000CF019091D001A091D101B091D2012FBFF4
:100540004091EA015091EB016091EC017091ED0155
:10055000841B950BA60BB70B4091E6015091E70168
:100560006091E8017091E90184179507A607B70724
:1005700020F2D5CFC114D10441F0B601802F0E94E2
:10058000520E182F8823A1F001C016E083E391E0FA
:100590000E944A0C82E491E00E944A0C812F0E9442
:1005A000D5010E94D90D8AE391E00E944A0C07C050
:1005B0000F5F84E0C80ED11C0738E1F610E0C501DA
:1005C0000E946F11019709F03EC011114AC081E0ED
:1005D000F701808311828FE082838DEB8383B701E3
:1005E00082E80E94520E182F882371F083E391E075
:1005F0000E944A0C80E591E00E944A0C812F0E94E3
:10060000D5010E94D90D29C09FE0F701908380EEAB
:10061000818392838383B70182E00E94520E182F58
:10062000882389F083E391E00E944A0C81E691E0FF
:100630000E944A0C812F0E94D5010E94D90D8AE3A5
:1006400091E00E944A0C11110CC083E391E00E94DA
:100650004A0C85E791E00E944A0C8AE391E00E94EF
:100660004A0CC05EDD4F0FB6F894DEBF0FBECDBFA3
:10067000DF91CF911F910F91FF90EF90DF90CF907E
:10068000BF90AF9008950F931F93CF9383E391E0B2
:100690000E944A0CC0E080916002C817C8F40C2F79
:1006A00010E0025A1D4FF8018381803118F084E375
:1006B00091E002C080E891E00E944A0CF801638159
:1006C00070E080E090E040E10E94980DCF5FE3CFC2
:1006D0008AE391E0CF911F910F910C944A0C90E026
:1006E000FC013197EF30F105B0F5EA5AFF4F0C9459
:1006F0001812809180008F7703C0809180008F7DD9
:1007000080938000089580918000877FF9CF84B521
:100710008F7702C084B58F7D84BD0895809190004D
:100720008F7707C0809190008F7D03C080919000EB
:10073000877F8093900008958091C0008F7703C0D9
:100740008091C0008F7D8093C00008958091C20089
:10075000877F8093C20008951F93CF93DF93282F44
:1007600030E0F901EF5BFD4F8491F901E556FD4F53
:10077000D491F901E458FD4FC491CC23C9F0162F50
:1007800081110E946F03EC2FF0E0EE0FFF1FE05A83
:10079000FD4FA591B4918FB7F894111105C09C91AC
:1007A000ED2FE095E92302C0EC91ED2BEC938FBF88
:1007B000DF91CF911F9108958F929F92AF92BF9238
:1007C000CF92DF92EF92FF926B017C010E94A20117
:1007D0004B015C01C114D104E104F104F1F00E9469
:1007E000A201DC01CB0188199909AA09BB09883E3D
:1007F0009340A105B10570F321E0C21AD108E108C8
:10080000F10888EE880E83E0981EA11CB11CC1146B
:10081000D104E104F10419F7DDCFFF90EF90DF90F0
:10082000CF90BF90AF909F908F9008951F920F929E
:100830000FB60F9211242F933F938F939F93AF93F3
:10084000BF938091CF019091D001A091D101B0913F
:10085000D2013091CE0123E0230F2D3720F40196F1
:10086000A11DB11D05C026E8230F0296A11DB11DD3
:100870002093CE018093CF019093D001A093D1011A
:10088000B093D2018091D3019091D401A091D50170
:10089000B091D6010196A11DB11D8093D301909313
:1008A000D401A093D501B093D601BF91AF919F9190
:1008B0008F913F912F910F900FBE0F901F90189521
:1008C00008958EBD00000DB407FEFDCF8EB50895CE
:1008D0008CBD9DBD08951F93CF93DF93EC01162F20
:1008E00083E590E00E94680460E08E850E94AC037E
:1008F000812F80680E94610480E00E946104182FAB
:1009000061E08E850E94AC03812FDF91CF911F9112
:100910000895EF92FF921F93CF93DF931F92CDB76D
:10092000DEB77C01162F83E590E049830E946804BE
:1009300060E0F70186850E94AC03812F0E9461046C
:100940004981842F0E94610461E0F70186850F9040
:10095000DF91CF911F91FF90EF900C94AC03CF9259
:10096000DF92EF92FF920F931F93CF93DF93EC01EF
:100970006B01142F790140E062E00E94890444E099
:100980006AE0CE010E94890440E864E1CE010E9441
:100990008904A601612FCE010E944C0C43E062E065
:1009A000CE010E94890408E813E16AE0CE010E94AA
:1009B0006B0482FF13C040E062E0CE010E94890414
:1009C00064E4CE010E946B04F701808362E4CE01EF
:1009D0000E946B04F701818380E004C0015011097B
:1009E00021F783E0DF91CF911F910F91FF90EF905E
:1009F000DF90CF900895AF92CF92DF92EF92FF9267
:100A00000F931F93CF93DF93CDB7DEB763970FB6E6
:100A1000F894DEBF0FBECDBF4CE552E067E372E055
:100A200080E090E00E948D1122E12B8B0E946F11DB
:100A300090E399838A839E012D5F3F4F42E0BE0180
:100A40006F5F7F4F8EE592E00E94AF04811115C069
:100A5000AA24A394C12CE12CF12C8E010D5E1F4F12
:100A60009E012F5F3F4F44E0B9018EE592E00E9466
:100A7000870C182F882399F001C0182F83E391E089
:100A80000E944A0C82E491E00E944A0C812F0E944D
:100A9000D5010E94D90D8AE391E00E944A0C83E3BC
:100AA00091E00E944A0C8E010F5F1F4F84E0F82EE8
:100AB000F00E6801F8018081803118F084E391E044
:100AC00002C080E891E00E944A0C0F5F1F4FF601C0
:100AD000608170E080E090E040E10E94980DF012AB
:100AE000E8CF8AE391E00E944A0C63960FB6F8942F
:100AF000DEBF0FBECDBFDF91CF911F910F91FF9051
:100B0000EF90DF90CF90AF900895EF92FF921F93F8
:100B1000CF93DF931F92CDB7DEB77C01162F4983A9
:100B20000E946B04498140954823612FC7010F90B3
:100B3000DF91CF911F91FF90EF900C9489048F92D9
:100B40009F92AF92CF92EF92FF920F931F93CF930A
:100B5000DF9300D000D01F92CDB7DEB74C0182E00A
:100B60008D8340E064E2C4010E94890440E066E2B3
:100B7000C4010E94890446E268E4C4010E94890419
:100B800086E28C838D81823018F140E86CE1C401EB
:100B90000E94850587E08B83A12CC12CCE01039692
:100BA0007C018E010B5F1F4F9E012F5F3F4F41E085
:100BB000BE016C5F7F4FC4010E94870C81110BC086
:100BC0008D81823039F481E09B81911104C008C08D
:100BD00084E001C081E091E0823019F090E001C032
:100BE00091E0892F0F900F900F900F900F90DF9151
:100BF000CF911F910F91FF90EF90CF90AF909F906A
:100C00008F90089583E391E00E944A0C8EE592E074
:100C10000E949F05882349F08EE592E00E94C7015B
:100C2000882319F082E891E002C086E891E00E94F2
:100C30004A0C8AE391E00C944A0C2F923F924F9217
:100C40005F926F927F928F929F92AF92BF92CF925C
:100C5000DF92EF92FF920F931F93CF93DF93CDB765
:100C6000DEB72D970FB6F894DEBF0FBECDBF41356E
:100C700008F00BC1342E3B014C0140E86CE10E94AE
:100C80008505BB24B39422E0B21691F033E0B3168D
:100C9000E1F041E0B412FDC083E989833320D1F053
:100CA00081E0F3019081953008F480E0D12C17C0E9
:100CB00085E98983332081F081E0F30190819830C8
:100CC00008F480E053E0D52E0AC087E9898346E026
:100CD000D42E04C0D12C02C033E0D32E80E0532D9B
:100CE000F8EFDF9E500D112457FD50E0882321F0CE
:100CF00098E89B8343E001C042E021E0952F977084
:100D000009F420E0952F959595959595290F21F457
:100D1000882311F1585F20C0811102C094E001C006
:100D200093E0291708F4922F20E030E06D2D70E059
:100D3000E42FE20FA1E0B0E0AC0FBD1FAE0FB11D7C
:100D4000F901E60FF71FE60DF71DE181EC932F5F28
:100D50003F4F291768F3DCCF23E0222E5032FCF0FE
:100D600020E72A839C818B8189279D8189279E8109
:100D700089278F839E01285F3F4F47E0BE016F5F49
:100D80007F4FC4015D870E94AF045D858111CDC096
:100D90001B862A86CE0107962C0179E01EC0952F6E
:100DA00097709B87252F25952595259582E0820FA5
:100DB000392FE0E18E9F300D11243A8371E09111BB
:100DC00001C070E0780F44244394512C4C0E5D1EFA
:100DD000480E511C87E0821B8A87CB844C2D42959C
:100DE000407F4C0D6AE1C4015D877C870E948904C5
:100DF000A12C9E01255F3F4F79018E01065F1F4F99
:100E000092017C85472FBE016F5F7F4FC4010E9416
:100E1000870C5D85823099F56CE1C4010E946B04FA
:100E20005D8585FD34C08F7109F480E2282F30E0A4
:100E3000452F550F550B421753075CF5582FC90125
:100E400001978770992725952595259531E0320FD3
:100E500021E0009709F420E0230FE1E0F0E0EC0F3F
:100E6000FD1FE20FF11D21E030E002C0220F331F11
:100E70008A95E2F7C9019081892B80836FCF811118
:100E800054C0503244F450E26BCF86E04EC082E052
:100E90004CC085E04AC08B81883809F043C033E0FC
:100EA00023E080E090E06D2D70E0FC01E60FF71F7D
:100EB000E60DF71D432F480FA1E0B0E0AC0FBD1FBA
:100EC000A40FB11D4C9141830196821770F38A855E
:100ED000833021F58B85811121C09E012D5F3F4F0D
:100EE00041E0B201C4010E94AF0481111EC09B8188
:100EF000F2018181981314C09C818281981310C0E3
:100F0000808182FF02C0B394BECEF30183878B2D14
:100F1000880FB80EB394B08280E007C081E005C0AE
:100F200087E003C032E024E0BCCF2D960FB6F894E2
:100F3000DEBF0FBECDBFDF91CF911F910F91FF900C
:100F4000EF90DF90CF90BF90AF909F908F907F9069
:100F50006F905F904F903F902F900895AF92CF92F7
:100F6000EF92FF920F931F93CF93DF9300D000D0A7
:100F7000CDB7DEB780E589831A829E012D5F3F4F92
:100F800042E0BE016F5F7F4F8EE592E00E94AF04AA
:100F9000811110C0A12CC12CE12CF12C00E010E03B
:100FA00020E030E044E0BE016F5F7F4F8EE592E0CD
:100FB0000E94870C48E060E18EE592E00E94850582
:100FC00083E391E00E944A0C8EEA91E00E944A0C71
:100FD0008AE391E00E944A0C0F900F900F900F90BF
:100FE000DF91CF911F910F91FF90EF90CF90AF9035
:100FF00008954091D9015091DA012091D7013091A3
:10100000D80142175307B4F49091E8009570E1F3CA
:101010009091E80092FD19C08093F1008091D90170
:101020009091DA0101968F739927892B19F48EEF2D
:101030008093E8008091D9019091DA010196909314
:10104000DA018093D90181E0089580E00895DF926C
:10105000EF92FF920F931F93CF93DF93D82E8A01C5
:101060007B01E40EF51EEB01CE15DF0571F0D7FE16
:1010700003C0FE01849101C088810E94F907219676
:101080008111F2CF8FEF9FEF01C0C801DF91CF91A7
:101090001F910F91FF90EF90DF900895615030F015
:1010A0002091F100FC0120830196F8CF289A84E674
:1010B0008093E0010895CF92DF92EF92FF920F9319
:1010C0001F93CF93DF936C017A018B01C0E0D0E0D6
:1010D000CE15DF0589F0D8016D918D01D601ED9116
:1010E000FC910190F081E02DC6010995892B11F446
:1010F0007E0102C02196ECCFC701DF91CF911F91F5
:101100000F91FF90EF90DF90CF900895CF93DF93F2
:101110001F92CDB7DEB76983DC01ED91FC910280AF
:10112000F381E02D41E050E0BE016F5F7F4F0995F4
:101130000F90DF91CF91089583E08093E900809133
:10114000F200882319F08AE38093E80008957F92E3
:101150008F929F92AF92BF92CF92DF92EF92FF92C7
:101160000F931F93CF93DF936C015B017A01809102
:101170000B01882309F46BC08091E101882309F4F5
:1011800066C08091DD0180FF05C08091E000826033
:101190008093E000E70110E00AEF83E0982E90E4EE
:1011A000792E2AE3822E209709F448C08FB7F8944D
:1011B0009092E9009091E80095FF06C09091F200AE
:1011C000272D291B922F01C090E08FBF91110AC0DB
:1011D000015009F43CC061E070E080E090E00E94C2
:1011E000DC03E1CF292F30E0C217D3070CF49C2F8A
:1011F0008FB7F8949092E9002091E80025FF1CC079
:10120000292F30E0C21BD30BF501915020F0419102
:101210004093F100FACFA20EB31E112319F0809271
:10122000E80009C09091E80095FD06C08092E800B2
:1012300011E0209709F010E08FBFB5CF1111B6CFA4
:101240005D9A84E68093DB011E141F0444F081E064
:1012500090E0F6019383828380E090E001C0C701B3
:10126000DF91CF911F910F91FF90EF90DF90CF9082
:10127000BF90AF909F908F907F9008950E94E8124A
:101280000F931F93CF93DF931F92CDB7DEB782E00A
:10129000898342E450E061EC71E080E80E94270815
:1012A0000E94E10EDC0112960D911C91139701151D
:1012B000110569F0D801ED91FC910280F381E02DD8
:1012C000BE016F5F7F4FC801099597FF07C08981F5
:1012D0000F90DF91CF911F910F910895F801008534
:1012E0001185E5CFCF93DF931F92CDB7DEB7FC0119
:1012F0008485958597FD05C02FEF3FEF35872487BF
:101300000BC0CE0101960E94B70E019719F4898196
:1013100090E002C08FEF9FEF0F90DF91CF91089583
:101320001F920F920FB60F9211248F939F9380916B
:10133000E1009091E100937F9093E10083FF0FC063
:101340001092E90091E09093EB001092EC0092E390
:101350009093ED001092E10198E09093F00082FFED
:1013600020C093E09093E9009091F200992319F046
:101370009AE39093E8009091DB01992339F09091E2
:10138000DB0191509093DB01992389F19091E00169
:10139000992339F09091E00191509093E0019923C5
:1013A00041F184FF10C08091E2008E7E81608093C5
:1013B000E2008091E1008F7E8093E1008091DD0169
:1013C0008E7E806111C080FF16C08091E2008E7E0B
:1013D00080618093E2008091E1008E7E8093E10045
:1013E0008091DD018E7E81608093DD0104C05D9877
:1013F000CDCF2898D6CF9F918F910F900FBE0F9091
:101400001F9018951F920F920FB60F921124CF9232
:10141000DF92EF92FF920F931F932F933F934F937F
:101420005F936F937F938F939F93AF93BF93EF934C
:10143000FF93CF93DF93CDB7DEB76C97DEBFCDBF01
:101440001092E9008091E80083FFEDC168E0CE01D1
:1014500045960E944E0882EF8093E8008D8987FFB1
:1014600005C09091E80090FFFCCF03C09EEF9093E1
:10147000E800982F907609F0C6C09E892F89188DB4
:1014800091110CC0803829F48091DE018093F10025
:1014900002C01092F1001092F10048C1422F50E0BA
:1014A000512B913051F4811141C14130510509F066
:1014B0003DC18091DE018D7F0BC0933061F48111BD
:1014C00035C14130510509F031C18091DE018260A2
:1014D0008093DE012BC1953041F48091E80080FFBC
:1014E000FCCF20682093E30021C1963009F05FC053
:1014F000EB8CFC8C1092E9001092DA011092D90169
:10150000123091F51092D8011092D7010E94400933
:1015100099E0BE016F5F7F4FDB01E92F1D92EA95D5
:10152000E9F799831A8391E09E8390EA98879AEF6E
:1015300099872091D9013091DA01275F3F4F3C8391
:101540002B838D831092E9001092DA011092D90159
:10155000F092D801E092D70149E050E080E00E948B
:1015600027080E944009E2C0F092D801E092D7011A
:101570000E94E10EDC011296ED90FC901397E114AD
:10158000F10409F4C0C0D701ED91FC910480F5810C
:10159000E02DBE016B5E7F4FC7010995009719F0E2
:1015A0000CF0C4C0C7C0F701E084F184E8CF9730E5
:1015B00009F4C0C0983021F481E08093F100B6C0F6
:1015C000993009F0B3C0837009F0B4C0E3E1F1E0F1
:1015D00081E021E036E39081992361F08093E90076
:1015E0002093EB0091919093EC003093ED008F5F8E
:1015F000873089F78EE78093EA001092EA008F899E
:101600008093E10193C08B8D9C8D1092E900109224
:10161000DA011092D9019093D8018093D701898D76
:10162000811156C08E899D89913A59F4813209F011
:1016300081C047E050E064E071E080E00E9427084C
:1016400075C0913209F076C0833289F4888D90E0BC
:10165000982F88272F89822BA0E0B0E0809300018B
:1016600090930101A0930201B09303015FC0803207
:1016700069F48091E80082FFFCCF67E084E091E0AC
:101680000E944E088BEF8093E80006C0823209F07A
:101690004DC08F8980930B018091DC01882319F064
:1016A000EEEFFAE002C0E0E0F8E0809104019091F2
:1016B0000501A0910601B0910701803B9440A1056E
:1016C000B10509F07BC080910B0180FF93C076C00B
:1016D0000E94E10EDC0112960D911C9113970115E9
:1016E000110541F1D801ED91FC910190F081E02DBF
:1016F000BE016B5E7F4FC8010995811117C0F801CB
:1017000000851185ECCF113009F44EC0133091F4EF
:101710008F89882309F445C0823081F440E86DE068
:1017200085E292E00E94F50E882321F08EEF8093EF
:10173000E80079C081E28093EB0075C0813029F424
:1017400040E86BE089E192E0EDCF833099F70E94A9
:10175000E10EDC011296ED90FC9013978E010F5F65
:101760001F4F6801E114F10479F0D701ED91FC916C
:101770000680F781E02DB801C7010995080F111DFA
:10178000F701E084F184EECFD8011C92F6010190BC
:101790000020E9F73197BF016C197D0940E0C601CF
:1017A000C1CF63E072E002C067E072E061157105CD
:1017B00009F2FB01449150E080E840CF0FB6F89465
:1017C000A89580916000886180936000109260000D
:1017D0000FBEA895EE3F2AE0F20739F08091FE0A8D
:1017E0009091FF0A91838083A1CF1092FF0A1092FB
:1017F000FE0A9CCFEE3F8AE0F80731F080819181AC
:101800009093FF0A8093FE0A87E797E7918380838E
:101810009BE088E10FB6F894A895809360000FBE16
:101820009093600083CF6C960FB6F894DEBF0FBE26
:10183000CDBFDF91CF91FF91EF91BF91AF919F917C
:101840008F917F916F915F914F913F912F911F9158
:101850000F91FF90EF90DF90CF900F900FBE0F9001
:101860001F901895BC01009791F0FC010190002099
:10187000E9F73197AF01481B590BE091E201F09174
:10188000E3010280F381E02D82EE91E0099480E093
:1018900090E008950C94320CCF92DF92EF92FF9279
:1018A0000F931F93CF93DF9300D0CDB7DEB78C019A
:1018B000F62E83E590E049835A830E94680460E035
:1018C000F80186850E94AC0382E10E94610449818F
:1018D000E42EC42E5A81D52E8C2D8E198F1530F4FE
:1018E000F60181916F010E946104F6CF61E0F80179
:1018F00086850E94AC030F900F90DF91CF911F91CE
:101900000F91FF90EF90DF90CF900C9460044F9276
:101910005F926F927F928F929F92AF92BF92CF927F
:10192000DF92EF92FF920F931F93CF93DF9300D03C
:10193000CDB7DEB74C012B01D42E3901E114F104EF
:1019400019F0F701408101C040E0B42EF0E1CF9ED4
:10195000B00C112440E062E0C4010E9489044FE70A
:1019600068E0C4010E94890440E864E1C4010E9467
:101970008904A2016D2DC4010E944C0C4B2D6AE11B
:10198000C4010E9489044CE062E0C4010E94890401
:101990006AE1C4010E946B04482F40686AE1C401F7
:1019A0000E94890480ED482E87E0582E68E0C4012B
:1019B0000E946B04982F907341F480FD04C081E075
:1019C000481A510899F783E0A0C06CE0C4010E9456
:1019D0006B04D82E837109F097C06114710409F467
:1019E00059C00115110509F455C064E1C4010E94F4
:1019F0006B04B82EF80180818B1508F47FC0B0828B
:101A0000BB20E9F183E590E00E94680460E0F40106
:101A100086850E94AC0382E90E946104CC20A1F07B
:101A20008FEF90E02C0101C0440CCA94EAF782E9E0
:101A30000E94610484214094F30190814922842909
:101A40008083CC24C39401C0C12CBA944C2C512C5B
:101A5000460C571CCB1438F482E90E946104F20151
:101A60008083C394F3CF80E00E946104F2018083FD
:101A700061E0F40186850E94AC030E94600468E185
:101A8000C4010E946B048770E114F10421F0F70196
:101A9000808301C080E0D3FC33C06114710491F1F4
:101AA0000115110579F1AA2069F1F8014081413051
:101AB00019F4843019F420C0423010F487E025C0B6
:101AC0008111FCCF42509E012F5F3F4FB301C401F3
:101AD0000E94AF04811119C0F8018081680E711C49
:101AE000F3013297908189819813E8CF31969081E4
:101AF0008A819813E3CF06C08FEF07C084E005C04A
:101B000082E003C080E001C081E00F900F90DF9180
:101B1000CF911F910F91FF90EF90DF90CF90BF90EA
:101B2000AF909F908F907F906F905F904F900895AF
:101B30008F929F92AF92BF920F931F93CF93DF9399
:101B4000CDB7DEB7A1970FB6F894DEBF0FBECDBFFD
:101B500019A2423008F44AE08E010F5D1F4F842E17
:101B6000912CA12CB12CA50194010E94F611E62F15
:101B7000B901CA0101501109EA3014F4E05D01C055
:101B8000E95CD801EC93232B242B252B61F7C801AA
:101B90000E94320CA1960FB6F894DEBF0FBECDBFE7
:101BA000DF91CF911F910F91BF90AF909F908F9039
:101BB00008950F931F93CF93DF938C01C0E0D0E083
:101BC000F801EC0FFD1F6491662371F0E091E201D2
:101BD000F091E3010190F081E02D82EE91E0099512
:101BE000892B11F02196ECCFCE01DF91CF911F917F
:101BF0000F910895BF92CF92DF92EF92FF920F93D1
:101C00001F93CF93DF936C017B01C2E3D2E02A8163
:101C100030E02F5F3F4F8BE0829FB001839F700DBC
:101C20001124888199810E941E1299838883BA8029
:101C30008C012BE0B29E000D111D112448E050E0F4
:101C4000B601C8010E941413F801F286E186B3942C
:101C5000BA82DF91CF911F910F91FF90EF90DF90AB
:101C6000CF90BF90089590E0FC01E556FD4F249180
:101C7000FC01E458FD4F8491882399F090E0880F8F
:101C8000991FFC01E259FD4FA591B491FC01E05A66
:101C9000FD4F859194918FB7F894EC91E22BEC93E2
:101CA0008FBF0895AF92CF92EF92FF920F931F9341
:101CB000CF93DF93CDB7DEB76A970FB6F894DEBF48
:101CC0000FBECDBF92EA9B8B8C8BFB0180819181F3
:101CD000A281B3818D8B9E8BAF8BB88F86E0FE0186
:101CE0007396DE01119601900D928A95E1F79E019F
:101CF000295F3F4F46E0BE016F5F7F4F8EE592E068
:101D00000E94AF04811124C082E18A8F198EA12C18
:101D1000C12CCE0149967C018E01065E1F4F9E01AB
:101D20002F5F3F4F48E0B9018EE592E00E94870C9B
:101D300081110EC08A8D813051F4898D843039F43F
:101D400081E099819A3009F480E0819501C081E0B9
:101D50006A960FB6F894DEBF0FBECDBFDF91CF916C
:101D60001F910F91FF90EF90CF90AF900895FC01DD
:101D70008091E101811103C08FEF9FEF08959FB71C
:101D8000F89482E08093E9002091F20030E012168E
:101D9000130614F421E030E02115310559F0289A9A
:101DA00084E68093E0018091F10080838091F200CD
:101DB000882319F09FBFC90108958BE68093E8003E
:101DC000F9CF8091720281110DC082E080936E0282
:101DD00084E080936F02109271021092700281E091
:101DE000809372028EE692E00895CF92DF92EF9296
:101DF000FF920F931F93CF93DF931F92CDB7DEB760
:101E0000182F062FE42E862F880F8E5F99830E944D
:101E1000F90783E00E94F907F12EC12E9981D92E8E
:101E20008C2D8F19801798F4F601E7FE02C084917B
:101E300001C080810E94F907182F80E00E94F907F5
:101E40008123FFEFCF1ADF0A8111EACF01C081E0C1
:101E50000F90DF91CF911F910F91FF90EF90DF9046
:101E6000CF900895789484B5826084BD84B58160F4
:101E700084BD85B5826085BD85B5816085BD809155
:101E80006E00816080936E001092810080918100CD
:101E900082608093810080918100816080938100C5
:101EA00080918000816080938000809191008260A9
:101EB0008093910080919100816080939100809146
:101EC00090008160809390008091C1008460809335
:101ED000C1008091C10082608093C1008091C100E7
:101EE00081608093C1008091C30081608093C300B2
:101EF0008091C00082608093C0008091C2008160A8
:101F00008093C20080917A00846080937A008091EF
:101F10007A00826080937A0080917A008160809359
:101F20007A0080917A00806880937A001092E101B3
:101F30001092DE011092DD018091D70081608093C4
:101F4000D70080EA8093D80089B5806189BD89B5C2
:101F5000826089BD09B400FEFDCF61E070E080E0E1
:101F600090E00E94DC038091D8008F7C8061809398
:101F7000D8008091E000807F8093E0008091E100B4
:101F80008E7E8093E1008DE08093E200559A209A46
:101F90005D982898EEEFFFE7859194918B3F9C4DDB
:101FA00019F481E08093DC018FEF9FEF9093EF01B4
:101FB0008093EE01CFB7F8948091DF01811124C0A6
:101FC000EDE8F2E08491ECEAF2E09491E82FF0E0A1
:101FD000EE0FFF1FE259FD4FA591B491EC91E9235B
:101FE00021F461E081E10E94AC0381E10E94330EA3
:101FF0008CB580618CBD8CB580648CBD8FE00E94F7
:10200000330E80E10E94330E8091DF018F5F809359
:10201000DF01CFBF80916C020E94330E61E080919E
:102020006C020E94AC0380916D028F3F69F44FE017
:1020300062E08EE592E00E94890462E370E080E055
:1020400090E00E94DC0324C00E94330E20916D02B8
:1020500030E0F901EF5BFD4F8491F901E556FD4F4A
:10206000D491F901E458FD4FC491CC2309F4F6C092
:1020700081110E946F03EC2FF0E0EE0FFF1FED5C6B
:10208000FD4FA591B491EC91ED2309F4E7C0CFCFBA
:1020900062E08EE592E00E946B0484FDF9CF40E09F
:1020A00064E28EE592E00E94890440E066E28EE5FB
:1020B00092E00E94890446E268E48EE592E00E9484
:1020C000890440E864E58EE592E00E94890449EACB
:1020D00066E58EE592E00E94890443E068E58EE5BE
:1020E00092E00E94890448EE6AE58EE592E00E9443
:1020F000890440E46AE28EE592E00E9489044DE39F
:1021000062E28EE592E00E94890440E76CE48EE58D
:1021100092E00E94890468E28EE592E00E946B04DE
:10212000982F9370933039F0482F436068E28EE522
:1021300092E00E94890468E272E089E891E00E94DE
:10214000FA0D62E076E08FE891E00E94FA0D63E418
:1021500073E08AE991E00E94FA0D6EEA77E088EA7E
:1021600091E00E94FA0D6BEF74E083EB91E00E9426
:10217000FA0D64E372E080EC91E00E94FA0DC0E099
:10218000D0E082EE91E00E948801181619060CF04A
:102190005FC082EE91E00E947209182F809139028F
:1021A00018133AC04CE552E067E372E08AE392E02C
:1021B0000E948D117C01892B51F1C0903402D12CE9
:1021C0000091320210913302A12CB12CAC14BD0449
:1021D000B4F4480148E050E0B801C7010E9406137A
:1021E000055F1F4F892B39F4D4011996ED91FC91AD
:1021F0001A9709950CC0BFEFAB1ABB0AE7CFE09165
:102200003502F0913602309711F0C701099510920E
:102210003A0210925B02B5CF812F012E000C990B70
:102220000E94EF12892B09F4ACCFE0915B02E032FF
:1022300008F0A7CF91E09E0F90935B02F0E0EE5C78
:10224000FD4F1087E92FF0E0EE5CFD4F108699CF2F
:10225000209709F496CF0E94000093CF61E080910F
:102260006D020E94AC0362E370E080E090E00E94A7
:10227000DC0315CFCF93DF93E2EEF1E013821282FD
:1022800088EE93E0A0E0B0E084839583A683B783D3
:102290008DE191E0918380838FEF9FEF9587848715
:1022A000EEE5F2E08DE291E0918380838AE086871B
:1022B00099E09787C2E3D2E0198218821A821C82C1
:1022C0001B828F831BA61AA66EE471E087E392E05F
:1022D0000E94FF12188619A6DF91CF910895FC0184
:1022E00088279927E89421912032E9F3293010F0CA
:1022F0002E30C8F32B3241F02D3239F4689404C0EB
:102300000E94B411820F911D219120532A30C0F3F5
:102310001EF4909581959F4F0895FA01A191B08187
:10232000009719F41097E1F0CD01DC01CD010D907B
:10233000002011F4C00113C0FB012191222319F0E8
:102340002015D9F7F3CFFB012191201519F41E9226
:10235000119606C02223C1F70D900020A1F7D001ED
:10236000FA01A193B08308957AE0979F902D879FFB
:10237000802D910D112408959927882708952F9273
:102380003F924F925F926F927F928F929F92AF9205
:10239000BF92CF92DF92EF92FF920F931F93CF9352
:1023A000DF93CDB7DEB7CA1BDB0B0FB6F894DEBFE9
:1023B0000FBECDBF09942A88398848885F846E840F
:1023C0007D848C849B84AA84B984C884DF80EE8059
:1023D000FD800C811B81AA81B981CE0FD11D0FB662
:1023E000F894DEBF0FBECDBFED010895A1E21A2E15
:1023F000AA1BBB1BFD010DC0AA1FBB1FEE1FFF1FA9
:10240000A217B307E407F50720F0A21BB30BE40BF8
:10241000F50B661F771F881F991F1A9469F760953F
:102420007095809590959B01AC01BD01CF010895F9
:10243000EE0FFF1F0590F491E02D0994A0E0B0E0AD
:10244000E4E2F2E10C94C311EC01009721F4CB011A
:102450000E942313B8C0FC01E60FF71F9C01225015
:102460003109E217F30708F4ACC0D9010D911C91B2
:10247000119706171707B0F00530110508F49FC033
:10248000C80104978617970708F499C002501109EC
:10249000061B170B019311936D937C93CF010E9440
:1024A000B8138DC05B01A01AB10A4C01800E911EB9
:1024B000A0917C02B0917D0240E050E0E12CF12C33
:1024C000109709F44AC0A815B905D1F56D907C9014
:1024D0001197630182E0C80ED11CCA14DB0480F19D
:1024E000A3014A195B096A0182E0C80ED11C129649
:1024F000BC9012971396AC91B5E0CB16D10440F086
:10250000B282A38351834083D9016D937C930AC027
:102510000E5F1F4FC301800F911FF90191838083CC
:10252000EB2DFA2FE114F10431F0D7011396FC934F
:10253000EE93129744C0F0937D02E0937C023FC07B
:102540008D919C9111974817590708F4AC017D01B2
:1025500012960D90BC91A02DB3CF80917A029091EC
:102560007B0288159905E1F446175707C8F4809156
:102570000C0190910D01009741F48DB79EB74091E9
:10258000100150911101841B950BE817F907C8F44D
:10259000F0937B02E0937A02F901718360830FC0AC
:1025A000CB010E9423137C01009759F0A801BE01C2
:1025B0000E94F612CE010E94B813C70104C0CE01DA
:1025C00002C080E090E0CDB7DEB7EEE00C94DF1102
:1025D00081E090E0F8940C945014803209F091114D
:1025E0000C94BC1180528F55D8F70895FB01DC0183
:1025F00002C001900D9241505040D8F70895FB0160
:10260000DC0101900D920020E1F70895FB01DC014F
:102610004150504030F08D910190801919F4002004
:10262000B9F7881B990B0895FB01DC01415050401C
:1026300048F001900D920020C9F701C01D92415051
:102640005040E0F70895CF93DF938230910510F466
:1026500082E090E0E0917C02F0917D0220E030E0A9
:10266000C0E0D0E0309711F14081518148175907FF
:10267000C0F04817590761F482819381209719F0BF
:102680009B838A832BC090937D0280937C0226C01B
:102690002115310519F04217530718F49A01BE01AC
:1026A000DF01EF010280F381E02DDCCF2115310540
:1026B00009F1281B390B2430310590F412968D91C5
:1026C0009C9113976115710521F0FB01938382831F
:1026D00004C090937D0280937C02FD01329644C039
:1026E000FD01E20FF31F81939193225031092D9345
:1026F0003C933AC020917A0230917B02232B41F423
:1027000020910E0130910F0130937B0220937A02C9
:1027100020910C0130910D012115310541F42DB7A7
:102720003EB74091100150911101241B350BE091EF
:102730007A02F0917B02E217F307A0F42E1B3F0B05
:102740002817390778F0AC014E5F5F4F2417350723
:1027500048F04E0F5F1F50937B0240937A028193A3
:10276000919302C0E0E0F0E0CF01DF91CF910895B6
:102770000F931F93CF93DF93009709F48CC0FC0154
:1027800032971382128200917C0210917D02011512
:10279000110581F420813181820F931F20917A02EB
:1027A00030917B022817390779F5F0937B02E0938B
:1027B0007A0271C0D80140E050E0AE17BF0750F474
:1027C00012962D913C911397AD012115310509F118
:1027D000D901F3CF9D01DA013383228360817181B6
:1027E000860F971F8217930769F4EC0128813981BE
:1027F000260F371F2E5F3F4F318320838A819B81B5
:1028000093838283452B29F4F0937D02E0937C022D
:1028100042C01396FC93EE931297ED0149915991A2
:102820009E01240F351FE217F30771F48081918117
:10283000840F951F029611969C938E9382819381AB
:1028400013969C938E931297E0E0F0E0D8011296D5
:102850008D919C911397009719F0F8018C01F6CF98
:102860008D919C9198012E5F3F4F820F931F209175
:102870007A0230917B022817390769F4309729F4DE
:1028800010927D0210927C0202C013821282109379
:102890007B0200937A02DF91CF911F910F910895EF
:0428A000F894FFCFDA
:1028A400FFFFFFFF00E100000000000000007E02C7
:1028B400800000C18081000000000000008608A79D
:1028C400088801720904029C08000000001D069F8C
:1028D40005C7010200424F4D420003002F574149F2
:1028E40054002F4552524F5220446174613A2000E3
:1028F4002F4552524F522044796E4C6F636B3A20ED
:10290400002F4552524F52205374617469634C6FC7
:10291400636B3A20002F454E445F5752495445009B
:102924003000594553004E4F002F414D4949002F67
:102934004E5441475F48455245002F4745545F4E2A
:102944005441475F554944002F4E5441475F484125
:102954004C54002F524541445F414D4949424F0078
:0E2964002F57524954455F414D4949424F009B
:00000001FF
